:020000040800F2
:10000000000002205D37000835160008371600088A
:10001000391600083B1600083D16000800000000D5
:10002000000000000000000000000000312A00086D
:100030003F16000800000000D12A00084116000801
:10004000AD370008AD370008AD370008AD37000800
:10005000AD370008AD370008AD370008AD370008F0
:10006000AD370008AD370008AD370008AD370008E0
:10007000AD370008AD370008AD370008AD370008D0
:10008000AD370008AD370008AD370008AD370008C0
:1000900059160008AD370008AD370008AD37000825
:1000A000AD370008AD370008AD370008AD370008A0
:1000B000AD370008AD370008AD370008AD37000890
:1000C000AD370008AD370008AD370008AD37000880
:1000D000AD370008AD370008AD370008AD37000870
:1000E000AD370008AD370008AD370008AD37000860
:1000F000AD370008AD370008AD370008AD37000850
:10010000AD370008AD370008AD370008AD3700083F
:10011000AD370008AD370008AD370008AD3700082F
:10012000AD370008AD370008AD370008AD3700081F
:10013000AD370008AD370008AD370008AD3700080F
:10014000AD370008AD370008AD370008AD370008FF
:10015000AD370008AD370008AD370008AD370008EF
:10016000AD370008AD370008AD370008AD370008DF
:10017000AD370008AD370008AD37000800000000BB
:08018000AD370008AD3700089F
:1001C00081F0004102E000BF83F0004330B54FEA08
:1001D00041044FEA430594EA050F08BF90EA020F75
:1001E0001FBF54EA000C55EA020C7FEA645C7FEA08
:1001F000655C00F0E2804FEA5454D4EB5555B8BF2B
:100200006D420CDD2C4480EA020281EA030382EA9B
:10021000000083EA010180EA020281EA0303362D2D
:1002200088BF30BD11F0004F4FEA01314FF4801C00
:100230004CEA113102D0404261EB410113F0004F12
:100240004FEA03334CEA133302D0524263EB4303C9
:1002500094EA050F00F0A780A4F10104D5F1200E67
:100260000DDB02FA0EFC22FA05F2801841F10001C2
:1002700003FA0EF2801843FA05F359410EE0A5F196
:1002800020050EF1200E012A03FA0EFC28BF4CF0C7
:10029000020C43FA05F3C01851EBE37101F000457D
:1002A00007D54FF0000EDCF1000C7EEB00006EEB8A
:1002B0000101B1F5801F1BD3B1F5001F0CD3490814
:1002C0005FEA30004FEA3C0C04F101044FEA44526B
:1002D00012F5800F80F09A80BCF1004F08BF5FEAF2
:1002E000500C50F1000041EB045141EA050130BDD2
:1002F0005FEA4C0C404141EB0101013C28BFB1F5E4
:10030000801FE9D291F0000F04BF01460020B1FA2E
:1003100081F308BF2033A3F10B03B3F120020CDA01
:100320000C3208DD02F1140CC2F10C0201FA0CF0DF
:1003300021FA02F10CE002F11402D8BFC2F1200C44
:1003400001FA02F120FA0CFCDCBF41EA0C019040FA
:10035000E41AA2BF01EB0451294330BD6FEA040443
:100360001F3C1CDA0C340EDC04F11404C4F120022E
:1003700020FA04F001FA02F340EA030021FA04F340
:1003800045EA030130BDC4F10C04C4F1200220FA97
:1003900002F001FA04F340EA0300294630BD21FAD5
:1003A00004F0294630BD94F0000F83F4801306BF9B
:1003B00081F480110134013D4EE77FEA645C18BF8F
:1003C0007FEA655C29D094EA050F08BF90EA020F26
:1003D00005D054EA000C04BF1946104630BD91EA1E
:1003E000030F1EBF0021002030BD5FEA545C05D121
:1003F0004000494128BF41F0004130BD14F5800460
:100400003CBF01F5801130BD01F0004545F0FE41D3
:1004100041F470014FF0000030BD7FEA645C1ABF08
:10042000194610467FEA655C1CBF0B46024650EA3F
:10043000013406BF52EA033591EA030F41F400216B
:1004400030BD00BF90F0000F04BF0021704730B5F1
:100450004FF4806404F132044FF000054FF00001C6
:1004600050E700BF90F0000F04BF0021704730B587
:100470004FF4806404F1320410F0004548BF40425C
:100480004FF000013EE700BF42004FEAE2014FEAB1
:1004900031014FEA02701FBF12F07F4393F07F4F8C
:1004A00081F06051704732F07F4208BF704793F08F
:1004B0007F4F04BF41F40021704730B54FF46074A2
:1004C00001F0004521F000411CE700BF50EA0102A5
:1004D00008BF704730B54FF000050AE050EA01024E
:1004E00008BF704730B511F0004502D5404261EBBE
:1004F00041014FF4806404F132045FEA915C3FF4FF
:10050000D8AE4FF003025FEADC0C18BF03325FEA9B
:10051000DC0C18BF033202EBDC02C2F1200300FA4C
:1005200003FC20FA02F001FA03FE40EA0E0021FA71
:1005300002F11444BDE600BF70B54FF0FF0C4CF45F
:10054000E06C1CEA11541DBF1CEA135594EA0C0F11
:1005500095EA0C0F00F0DEF82C4481EA030621EA4C
:100560004C5123EA4C5350EA013518BF52EA033587
:1005700041F4801143F4801338D0A0FB02CE4FF039
:100580000005E1FB02E506F00042E0FB03E54FF069
:100590000006E1FB03569CF0000F18BF4EF0010E61
:1005A000A4F1FF04B6F5007F64F5407404D25FEA5D
:1005B0004E0E6D4146EB060642EAC62141EA555110
:1005C0004FEAC52040EA5E504FEACE2EB4F1FD0C52
:1005D00088BFBCF5E06F1ED8BEF1004F08BF5FEAD0
:1005E000500E50F1000041EB045170BD06F0004682
:1005F00046EA010140EA020081EA0301B4EB5C042F
:10060000C2BFD4EB0C0541EA045170BD41F4801126
:100610004FF0000E013C00F3AB8014F1360FDEBF4B
:10062000002001F0004170BDC4F10004203C35DA27
:100630000C341BDC04F11404C4F1200500FA05F3AA
:1006400020FA04F001FA05F240EA020001F000424B
:1006500021F0004110EBD37021FA04F642EB0601C1
:100660005EEA430E08BF20EAD37070BDC4F10C04EB
:10067000C4F1200500FA04F320FA05F001FA04F2AF
:1006800040EA020001F0004110EBD37041F100019B
:100690005EEA430E08BF20EAD37070BDC4F12005A6
:1006A00000FA05F24EEA020E20FA04F301FA05F20E
:1006B00043EA020321FA04F001F0004121FA04F2B6
:1006C00020EA020000EBD3705EEA430E08BF20EA86
:1006D000D37070BD94F0000F0FD101F000464000C0
:1006E00041EB010111F4801F08BF013CF7D041EA42
:1006F000060195F0000F18BF704703F00046520046
:1007000043EB030313F4801F08BF013DF7D043EA16
:100710000603704794EA0C0F0CEA135518BF95EACC
:100720000C0F0CD050EA410618BF52EA4306D1D153
:1007300081EA030101F000414FF0000070BD50EA72
:10074000410606BF1046194652EA430619D094EAFC
:100750000C0F02D150EA013613D195EA0C0F05D1E6
:1007600052EA03361CBF104619460AD181EA03013A
:1007700001F0004141F0FE4141F470014FF00000F2
:1007800070BD41F0FE4141F4780170BD70B54FF08D
:10079000FF0C4CF4E06C1CEA11541DBF1CEA13550D
:1007A00094EA0C0F95EA0C0F00F0A7F8A4EB0504EF
:1007B00081EA030E52EA03354FEA013100F08880E6
:1007C0004FEA03334FF0805545EA131343EA1263AF
:1007D0004FEA022245EA111545EA10654FEA002664
:1007E0000EF000419D4208BF964244F1FD0404F51D
:1007F000407402D25B084FEA3202B61A65EB030579
:100800005B084FEA32024FF480104FF4002CB6EB35
:10081000020E75EB030E22BFB61A754640EA0C00B5
:100820005B084FEA3202B6EB020E75EB030E22BFF5
:10083000B61A754640EA5C005B084FEA3202B6EB36
:10084000020E75EB030E22BFB61A754640EA9C00F5
:100850005B084FEA3202B6EB020E75EB030E22BFC5
:10086000B61A754640EADC0055EA060E18D04FEA83
:10087000051545EA16754FEA06164FEAC30343EA23
:1008800052734FEAC2025FEA1C1CC0D111F4801FF0
:100890000BD141EA00014FF000004FF0004CB6E7E9
:1008A00011F4801F04BF01430020B4F1FD0C88BF88
:1008B000BCF5E06F3FF6AFAEB5EB030C04BFB6EB93
:1008C000020C5FEA500C50F1000041EB045170BD86
:1008D0000EF0004E4EEA113114EB5C04C2BFD4EBB3
:1008E0000C0541EA045170BD41F480114FF0000E37
:1008F000013C90E645EA060E8DE60CEA135594EAB3
:100900000C0F08BF95EA0C0F3FF43BAF94EA0C0FB5
:100910000AD150EA01347FF434AF95EA0C0F7FF42A
:1009200025AF104619462CE795EA0C0F06D152EA7E
:1009300003353FF4FDAE1046194622E750EA410662
:1009400018BF52EA43067FF4C5AE50EA41047FF473
:100950000DAF52EA43057FF4EBAE12E74FF0FF3CD8
:1009600006E000BF4FF0010C02E000BF4FF0010CA9
:100970004DF804CD4FEA410C7FEA6C5C4FEA430C22
:1009800018BF7FEA6C5C1BD001B050EA410C0CBF71
:1009900052EA430C91EA030F02BF90EA020F0020D3
:1009A000704710F1000F91EA030F58BF994208BF3A
:1009B00090422CBFD8176FEAE37040F001007047F7
:1009C0004FEA410C7FEA6C5C02D150EA013C07D14E
:1009D0004FEA430C7FEA6C5CD6D152EA033CD3D099
:1009E0005DF8040B704700BF8446104662468C4693
:1009F0001946634600E000BF01B5FFF7B7FF0028C6
:100A000048BF10F1000F01BD4DF808EDFFF7F4FFEE
:100A10000CBF012000205DF808FB00BF4DF808ED79
:100A2000FFF7EAFF34BF012000205DF808FB00BF9C
:100A30004DF808EDFFF7E0FF94BF012000205DF8BE
:100A400008FB00BF4DF808EDFFF7CEFF94BF012073
:100A500000205DF808FB00BF4DF808EDFFF7C4FF6C
:100A600034BF012000205DF808FB00BF4FEA410CB5
:100A70007FEA6C5C02D150EA013C0AD14FEA430C98
:100A80007FEA6C5C02D152EA033C02D14FF00000D5
:100A900070474FF00100704753B94AB9002908BFA9
:100AA00000281CBF4FF0FF314FF0FF3000F0E2B8DC
:100AB000ADF1080C6DE904CE0AF0EAF8DDF804E0C7
:100AC000DDE9022304B0704700F1340191E83800F9
:100AD0009C46A6464CF8045D90E8FF0FE54600BD35
:100AE00090EC210B704700BF80EC210B704700BFDA
:100AF00090EC200B704700BF80EC200B704700BFCC
:100B0000D0EC200B704700BFC0EC200B704700BF3B
:100B1000F0EC0201F0EC0211F0EC0221F0EC0231F9
:100B2000F0EC0241F0EC0251F0EC0261F0EC0271E9
:100B3000F0EC0281F0EC0291F0EC02A1F0EC02B1D9
:100B4000F0EC02C1F0EC02D1F0EC02E1F0EC02F1C9
:100B5000704700BFE0EC0201E0EC0211E0EC022182
:100B6000E0EC0231E0EC0241E0EC0251E0EC026129
:100B7000E0EC0271E0EC0281E0EC0291E0EC02A119
:100B8000E0EC02B1E0EC02C1E0EC02D1E0EC02E109
:100B9000E0EC02F1704700BFB0FC0181B0FC0191B4
:100BA000B0FC01A1B0FC01B1704700BFA0FC018105
:100BB000A0FC0191A0FC01A1A0FC01B1704700BF05
:100BC000EC4600B52DE900502DE9FF1F4FF0000362
:100BD0002DE90C0001A90AF00FFBDDF840E012B08E
:100BE000704700BFEC4600B52DE900502DE9FF1F0E
:100BF0004FF000032DE90C0001A90AF039FBDDF8E4
:100C000040E012B0704700BFEC4600B52DE900503F
:100C10002DE9FF1F4FF000032DE90C0001A90AF098
:100C200049FBDDF840E012B0704700BFEC4600B56C
:100C30002DE900502DE9FF1F4FF000032DE90C00B6
:100C400001AB0AF00DFBDDF840E012B0704700BFC9
:100C5000EC4600B52DE900502DE9FF1F4FF00003D1
:100C60002DE90C0001AA0AF081FBDDF840E012B08A
:100C7000704700BF704700BF000000000000000088
:100C800001F0FF01102A2BDB10F0070F08D010F83D
:100C9000013B013A8B422DD010F0070F42B3F6D141
:100CA000F0B441EA012141EA014122F007047FF05A
:100CB00000070023F0E80256083C85EA010586EAB1
:100CC000010685FA47F5A3FA87F586FA47F6A5FAED
:100CD00087F68EB9EED1F0BC01F0FF0102F00702F9
:100CE00032B110F8013B013A83EA010313B1F8D1A4
:100CF0000020704701387047002D06BF3546033885
:100D0000073815F0010F07D1013015F4807F02BFBD
:100D1000013015F4C03F0130F0BC0138704700BF0E
:100D2000844641EA000313F003036DD1403A41D3F6
:100D300051F8043B40F8043B51F8043B40F8043BB5
:100D400051F8043B40F8043B51F8043B40F8043BA5
:100D500051F8043B40F8043B51F8043B40F8043B95
:100D600051F8043B40F8043B51F8043B40F8043B85
:100D700051F8043B40F8043B51F8043B40F8043B75
:100D800051F8043B40F8043B51F8043B40F8043B65
:100D900051F8043B40F8043B51F8043B40F8043B55
:100DA00051F8043B40F8043B51F8043B40F8043B45
:100DB000403ABDD2303211D351F8043B40F8043BE5
:100DC00051F8043B40F8043B51F8043B40F8043B25
:100DD00051F8043B40F8043B103AEDD20C3205D3F5
:100DE00051F8043B40F8043B043AF9D2043208D0ED
:100DF000D2071CBF11F8013B00F8013B01D30B885F
:100E000003806046704700BF082A13D38B078DD03C
:100E100010F003038AD0C3F10403D21ADB071CBF0E
:100E200011F8013B00F8013B80D331F8023B20F878
:100E3000023B7BE7043AD9D3013A11F8013B00F8B1
:100E4000013BF9D20B7803704B7843708B78837039
:100E50006046704700000000000000000000000035
:100E6000A2EB0300704700BF02780B78012A28BF6D
:100E70009A42F5D16DE9044540EA0104CDE90267E3
:100E80006FF0000C4FEA447212B380EA010414F0D0
:100E9000070F6AD100F0070420F0070004F00305F3
:100EA00021F007014FEAC505F0E8042314F0040F10
:100EB000F1E804670CFA05F462EA040266EA040643
:100EC0000AD063EA0403624667EA0407664603E061
:100ED000F0E80423F1E8046782FA4CF582EA06049C
:100EE000A4FA8CF46CBB83FA4CF583EA0705A5FAE7
:100EF0008CF595B950E9022351E9026782FA4CF565
:100F000082EA0604A4FA8CF483FA4CF583EA070516
:100F1000A5FA8CF52543DBD09CB92DBAB5FA85F43A
:100F200024F0070427FA04F1DDE9026723FA04F349
:100F300003F0FF0001F0FF01FDE80445A0EB010014
:100F4000704724BAB4FA84F424F0070426FA04F1B2
:100F5000DDE9026722FA04F202F0FF0001F0FF016E
:100F6000FDE80445A0EB0100704714F0030F3CD1ED
:100F700010F0030428D150F8082B51F8083B82FAEE
:100F80004CF582EA0305A5FA8CF55DB950F8042CFE
:100F900051F8043C82FA4CF582EA0305A5FA8CF577
:100FA000002DE8D02DBAB5FA85F424F0070423FA11
:100FB00004F122FA04F202F0FF0001F0FF01FDE863
:100FC0000445A0EB010070474FEAC40420F0030081
:100FD00050F8082B21F0030151F8083B0CFA04F4F7
:100FE00062EA040263EA0403C9E710F003041AD0BA
:100FF000A1EB040120F00300E40750F8042B06D015
:101000000FD28B785FFAA2F4E41A06D12BB1CB7819
:101010005FFAB2F4E41A00D11BB920465DF8104B18
:10102000704701F1040150F8042BCC0721F00301B3
:1010300051F8043B48D824D222F07F4482FA4CF580
:1010400094EA1325A5FA8CF50AD165B951F8043B49
:1010500084EA0204B4EB036F0ED150F8042BEBE7E3
:101060004FEA132355E035F07F454DD10878FDE870
:101070000445C0F1000070474FEA126203F0FF031D
:1010800047E002EA1C4482FA4CF594EA1345A5FABB
:101090008CF50AD165B951F8043B84EA0204B4EB3B
:1010A000034F0CD150F8042BEBE74FEA134330E029
:1010B00015EA1C4528D10B884FEA124229E04FEA75
:1010C000124203EA1C4324E002F0FF0482FA4CF5CA
:1010D00094EA1365A5FA8CF50AD165B951F8043B79
:1010E00084EA0204B4EB032F09D150F8042BEBE798
:1010F0004FEA13630DE015F0FF0F05D10B684FEABF
:10110000122223F07F4304E04FF00000FDE8044585
:10111000704712BA1BBA82FA4CF482EA0304A4FAAA
:101120008CF5B5FA85F402FA04F203FA04F34FEAF7
:101130001260FDE80445A0EB13607047000000005A
:1011400090F800F06DE9024520F007016FF0000C07
:1011500010F0070491F820F040F049804FF00004AF
:101160006FF00700D1E9002391F840F000F108008A
:1011700082FA4CF2A4FA8CF283FA4CF3A2FA8CF3C2
:101180004BBBD1E9022382FA4CF200F10800A4FA29
:101190008CF283FA4CF3A2FA8CF3E3B9D1E904237D
:1011A00082FA4CF200F10800A4FA8CF283FA4CF3B4
:1011B000A2FA8CF37BB9D1E9062301F1200182FA6E
:1011C0004CF200F10800A4FA8CF283FA4CF3A2FA74
:1011D0008CF3002BC6D0002A04BF04301A4612BA82
:1011E000B2FA82F2FDE8024500EBD2007047D1E985
:1011F000002304F00305C4F100004FEAC50514F014
:10120000040F91F840F00CFA05F562EA05021CBFE4
:1012100063EA050362464FF00004A9E74FEA410282
:1012200012F5001215D211D56FF47873B3EB625238
:1012300012D94FEAC12343F0004343EA505311F05F
:10124000004F23FA02F018BF404270474FF00000F1
:10125000704750EA013005D111F0004008BF6FF02F
:10126000004070474FF00000704700BF0348044B38
:10127000834202D0034B03B118477047C4090020D2
:10128000C4090020000000000548064B1B1AD90FB6
:1012900001EBA301491002D0034B03B1184770477B
:1012A000C4090020C40900200000000010B5064C4D
:1012B000237843B9FFF7DAFF044B13B10448AFF3C7
:1012C00000800123237010BDC4090020000000002D
:1012D0000421010808B5054B1BB105490548AFF3CA
:1012E0000080BDE80840FFF7CFBF00BF000000004E
:1012F000C80900200421010808B50D480D4B036002
:101300000323436000238360C3604FF41022026113
:101310004FF400124261037643768376C3760377F7
:10132000437700F055FA00B908BD00F0FDF8FBE77F
:10133000080A00200064004010B588B00023039321
:1013400004930593069307930268184B9A4201D0C1
:1013500008B010BD0024019403F5EA331A6C42F082
:1013600000721A641A6C02F000720192019A0294DF
:101370001A6B42F008021A631B6B03F00803029316
:10138000029B0323039302220492069309230793EB
:1013900003A9074800F06CFE22460521142000F046
:1013A0000DFE142000F042FED2E700BF00640040B2
:1013B000000C024008B502680F4B9A4213D0026835
:1013C0000E4B9A4213D00E4900238B610122CA6151
:1013D0000B604B608B60CB600B610A620E234B622B
:1013E00000F09CFA08BD064B01225A61E7E7044B66
:1013F0000E225A61E7E700BF006400400068004029
:10140000E009002010B588B00024059404940291EE
:101410008DF81C40069301AB02A900F049FB08B906
:1014200008B010BD00F080F8FAE708B5012001F01F
:1014300059FAFBE7034B0360034B0B6080231360F7
:10144000704700BF380C0020380A002010B58EB05D
:10145000124C0DF11C0CA646BEE80F00ACE80F00C4
:101460009EE807008CE80700002107A801F007FAB2
:101470000B4B1860EE4604F11C0CBCE80F00AEE804
:101480000F009CE807008EE807000021684601F085
:10149000F6F9044B18600EB010BD00BF2021010802
:1014A000300A0020340A002030B589B000240394AB
:1014B00004940594069407940094194B1A6B42F017
:1014C00001021A631A6B02F001020092009A019461
:1014D0001A6B42F008021A631A6B02F008020192BA
:1014E000019A02941A6B42F080021A631B6B03F09C
:1014F00080030293029B0B4D22464FF40061284665
:1015000000F0ACFE4FF400630393012304930594B1
:10151000069403A9284600F0ABFD09B030BD00BF1A
:1015200000380240001C024072B6FEE700B595B0DC
:101530003022002108A80BF051F9002303930493F3
:101540000593069307930193204A116C41F0805153
:101550001164126C02F080520192019A02931C4BAA
:101560001A6842F480421A601B6803F480430293B5
:10157000029B012308934FF48033099302230E93B7
:101580004FF480020F9206221092A8221192129319
:101590000423139308A800F067FE98B90F23039360
:1015A00002230493002305934FF4A05306934FF4B2
:1015B00080530793052103A801F0A6F820B915B0C0
:1015C0005DF804FBFFF7B0FFFFF7AEFF0038024005
:1015D0000070004008B500F0CFF8FFF7A7FFFFF755
:1015E00063FFFFF789FEFFF731FF01F043F9FEE7E4
:1015F00000B583B0002200920D4B596C41F480413C
:101600005964596C01F48041009100990192196C60
:1016100041F0805119641B6C03F080530193019BCE
:101620000F216FF0010000F0C9FC03B05DF804FB6E
:1016300000380240FEE7FEE7FEE7FEE7FEE7704700
:1016400008B500F0B3F802F079F8012800D108BD20
:1016500001F070FAFBE7000008B5024800F067FBF4
:1016600008BD00BF080A00200120704708B50AF035
:101670001DFB162303604FF0FF3008BD08B54FF087
:10168000FF31FFF7F3FFFEE770B50C461646002565
:1016900006E0AFF30080214601F8010B01350C464E
:1016A000B542F6DB304670BD70B50C4616460025D7
:1016B00004E014F8010BAFF300800135B542F8DB0C
:1016C000304670BD08B503460B4A126842B10A4A5B
:1016D000106803446A46934206D8074A136008BD5F
:1016E000054A06491160F2E70AF0E0FA0C230360AC
:1016F0004FF0FF30F3E700BF8C0C0020784A002049
:101700004FF0FF3070474FF400534B60002070479C
:101710000120704700207047034AD2F8883043F414
:101720007003C2F88830704700ED00E010B5044641
:101730000E4B1A784FF47A73B3FBF2F30C4A10682D
:10174000B0FBF3F000F080FC68B90F2C01D9012048
:101750000AE0002221464FF0FF3000F02FFC054B3D
:101760001C60002000E0012010BD00BF040000202C
:10177000000000200800002008B50B4B1A6842F456
:1017800000721A601A6842F480621A601A6842F4A1
:1017900080721A60032000F0FFFB0F20FFF7C6FFE6
:1017A000FFF726FF002008BD003C0240034A1168F5
:1017B000034B1B780B441360704700BF900C002054
:1017C00004000020014B1868704700BF900C0020F7
:1017D000002800F0A18038B5044690F82030D3B13D
:1017E0002268136843F001031360FFF7EBFF05461F
:1017F00023685A6812F0010F10D1FFF7E3FF401B76
:101800000A28F5D9636A43F400336362052384F838
:101810002030012038BDFFF78FFDE1E71A6822F084
:1018200002021A60FFF7CEFF054623685A6812F0DD
:10183000020F0DD0FFF7C6FF401B0A28F5D9636AD7
:1018400043F400336362052384F820300120E1E78C
:10185000227E012A3DD01A6822F080021A60637E3F
:10186000012B3BD02268136823F040031360A37E52
:10187000012B39D02268136823F020031360E37E24
:10188000012B37D02268136843F010031360237FC5
:10189000012B35D02268136823F008031360637F9F
:1018A000012B33D02268136823F004031360A3686C
:1018B000E268134322691343626913436268013A81
:1018C00021681343CB6100206062012384F820303B
:1018D000A0E71A6842F080021A60C0E72268136825
:1018E00043F040031360C2E72268136843F020030B
:1018F0001360C4E72268136823F010031360C6E77F
:101900002268136843F008031360C8E7226813686D
:1019100043F004031360CAE70120704790F82030B9
:10192000013BDBB2012B05D9436A43F480234362B8
:101930000120704730B5464BD3F8002242F0010237
:10194000C3F80022D3F8002222F47C52C3F800220C
:10195000D3F80022486A42EA0022C3F800224A690A
:1019600002F01F02012000FA02F2D3F81C026FEA13
:10197000020C20EA0200C3F81C02CB69C3B9344B45
:10198000D3F80C020CEA0000C3F80C028C884869FA
:10199000CD6844EA0544483043F830408C680888F4
:1019A00040EA04404C6904F1480E03EBCE03586052
:1019B000CB69012B1ED08B69002B33D12448D0F882
:1019C00004320CEA0303C0F804320B698BBB2048D5
:1019D000D0F814320CEA0303C0F814320B6A012B5E
:1019E0002ED01B4AD2F8003223F00103C2F8003295
:1019F000002030BD164BD3F80C021043C3F80C0284
:101A00008C8848690D6844EA0544483043F8304002
:101A100088894C698D6840EA0540483403EBC4036B
:101A20005860C8E70A48D0F804321343C0F80432BB
:101A3000CBE70748D0F814321343C0F81432CDE78F
:101A40000349D1F81C321343C1F81C32C9E700BF67
:101A50000064004070B5044690F82050EDB2012DAE
:101A600006D0436A43F4002343620125284670BD33
:101A7000022380F820300268136823F0010313600A
:101A8000FFF7A0FE064623685B6813F0010F0CD039
:101A9000FFF798FE831B0A2BF5D9636A43F40033E2
:101AA0006362052384F82030E0E700256562DDE706
:101AB00030B590F820C00468A4680CF1FF3C5FFAD0
:101AC0008CFCBCF1010F6BD814F0E05F62D0C4F362
:101AD000016CBCF1020F05D9436A43F40003436271
:101AE000012062E0012404FA0CF41C608B68002BD6
:101AF0003DD10D68CB68046843EA45550CF11803E5
:101B00001B01E55003680C690CF1180E03EB0E1372
:101B10005C600B7D012B35D0D17993791B0443EAAE
:101B20000163517943EA012314790168234301EBEE
:101B30000C11C1F88C31D17893781B0443EA01630E
:101B4000517843EA0123117802680B4302EB0C122F
:101B5000C2F8883102680CF1180C4FEA0C1C52F8DC
:101B60000C3043F0010342F80C3000201DE04C68BB
:101B700043EAC403CC6823430CF11804240105682C
:101B80002B51BFE7036803EB0E13596841F48071D2
:101B90005960C1E7436A43F400134362012004E043
:101BA000436A43F480234362012030BD90F820C093
:101BB0000CF1FF3C5FFA8CFCBCF1010F00F2958048
:101BC00030B451B90468E46814F0030F10D1436ACB
:101BD00043F400134362012077E00468246914F0A1
:101BE000030F05D1436A43F40013436201206CE004
:101BF00001F11B04240105682C5904F004049460CD
:101C0000002C64D101F11B04240105682C59640DDA
:101C10001460046801F11B0C4FEA0C1C54F80C40D2
:101C200004F00204D46004686444646804F00F049F
:101C30001461046864446468C4F30724946104680C
:101C400064446468240C5461026802EB0112D2F807
:101C5000B8211A70026802EB0112D2F8B821C2F35F
:101C600007225A70026802EB0112D2F8B821C2F3BF
:101C700007429A70026802EB0112D2F8B821120EE4
:101C8000DA70026802EB0112D2F8BC211A71026804
:101C900002EB0112D2F8BC21C2F307225A7102688A
:101CA00002EB0112D2F8BC21C2F307429A7102681A
:101CB00002EB0112D2F8BC21120EDA7179B9026876
:101CC000D36843F02003D360002030BC704701F19B
:101CD0001B04240105682C59E408546099E7026844
:101CE000136943F020031361EEE7436A43F4802352
:101CF00043620120704790F82030013BDBB2012B9A
:101D000005D9436A43F48023436201207047026887
:101D100053690B4353610020704770477047704709
:101D200070477047704770477047704770472DE99C
:101D3000F84F054603685C69D3F804809F68D3F8C0
:101D40000CB0D3F810A0D3F8189014F001063BD0D3
:101D500017F0010616D001229A6017F0020F08D181
:101D600017F0040F0CD117F0080606D04FF4805678
:101D700008E0FFF7D2FF002604E0FFF7D1FF01E003
:101D80004FF4006617F4807F0DD02B684FF48072FB
:101D90009A6017F4007F40F0868017F4806F00F09F
:101DA000868046F4005617F4803F0DD02B684FF420
:101DB00080329A6017F4003F40F0838017F4802F40
:101DC00000F0838046F4004614F0080F07D01BF0A3
:101DD000100F04D046F400762B681022DA6014F05D
:101DE000040F02D01BF0080F79D114F0020F04D0B9
:101DF0002B68DB6813F0030F78D114F0400F07D085
:101E00001AF0100F04D046F480662B6810221A6175
:101E100014F0200F02D01AF0080F6BD114F0100F3D
:101E200004D02B681B6913F0030F6AD114F4003F30
:101E300002D018F0100F68D114F4803F02D018F0CF
:101E4000080F69D114F4004F7AD018F0040F74D041
:101E500014F4807F04D019F0010F01D046F0010680
:101E600014F4007F04D019F0020F01D046F00206EE
:101E700014F4806F04D019F0040F01D046F004066A
:101E800014F4006F59D019F0700956D0B9F1400F11
:101E900065D058D8B9F1200F5ED0B9F1300F42D1DA
:101EA00046F0200644E02846FFF738FF7BE717F4AA
:101EB000006F02D046F4804675E72846FFF731FFF1
:101EC00071E72846FFF72BFF7EE717F4002F02D0BB
:101ED00046F4803678E72846FFF724FF74E72B683E
:101EE0000822DA60284601F04FFE7EE7284601F01E
:101EF00025FE82E72B6808221A612846FFF714FFA7
:101F00008CE72846FFF70FFF90E72B6810225A60F6
:101F10002846FFF70AFF8FE72B6808225A602846F9
:101F2000FFF704FF8EE7B9F1100F01D146F0080664
:101F30002A68936923F0700393612B6804225A6026
:101F40009EB9BDE8F88FB9F1500F0BD0B9F1600F11
:101F5000EED146F48076EBE746F01006E8E746F06F
:101F60004006E5E746F08006E2E76B6A33436B62C2
:101F7000284601F01BFEE4E790F82030013BDBB27D
:101F8000012B05D9436A43F4802343620120704743
:101F90000023436218467047074AD36823F4E0637E
:101FA0001B041B0C000200F4E060034343F0BF631A
:101FB00043F40033D360704700ED00E000B5194BE7
:101FC000DB68C3F30223C3F1070CBCF1040F28BF85
:101FD0004FF0040C03F1040EBEF1060F18D9033BB9
:101FE0004FF0FF3E0EFA0CFC21EA0C0199400EFA6C
:101FF00003FE22EA0E020A4300280BDB1201D2B2D2
:1020000000F1604000F5614080F800235DF804FBBA
:102010000023E5E700F00F001201D2B2024B1A5480
:10202000F4E700BF00ED00E014ED00E0002807DB5E
:1020300000F01F02400901239340024A42F8203079
:10204000704700BF00E100E00138B0F1807F0BD2A3
:102050004FF0E0235861054AF02182F82310002058
:10206000986107221A6170470120704700ED00E077
:1020700000230F2B00F2E98070B582B065E085681F
:102080004FEA430E032404FA0EF425EA0405CC6853
:1020900004FA0EF42C438460446824EA02044A687B
:1020A000C2F300129A40224342605CE0DC0808342C
:1020B00050F8242003F00705AD004FF00F0E0EFA84
:1020C00005FE22EA0E0E0A69AA4042EA0E0240F814
:1020D00024205CE0072200E0002202FA0EF22A43EC
:1020E00002345A4D45F82420594A14686FEA0C020C
:1020F00024EA0C054E6816F4803F01D04CEA040532
:10210000534C2560646802EA04054E6816F4003FEB
:1021100001D04CEA04054E4C6560A46802EA04054F
:102120004E6816F4801F01D04CEA0405484CA560A7
:10213000E46822404D6815F4001F01D04CEA040207
:10214000434CE26001330F2B7DD801229A400C688A
:1021500004EA020C32EA0404F4D14C6804F00304EB
:10216000013C012C8BD94A6802F00302032A09D0F2
:10217000C4685D000322AA4024EA02048A68AA40D7
:102180002243C2604A6802F00302022A8ED0046829
:102190004FEA430E032202FA0EF224EA02044A68CE
:1021A00002F0030202FA0EF2224302604A6812F4BD
:1021B000403FC7D000220192264A546C44F4804428
:1021C0005464526C02F480420192019A9C08A51C4E
:1021D0001E4A52F8255003F0030E4FEA8E0E0F22CE
:1021E00002FA0EF225EA02051B4A90423FF474AF50
:1021F00002F5806290421AD002F58062904218D0B7
:1022000002F58062904216D002F58062904214D0AE
:1022100002F58062904212D002F58062904210D0A6
:1022200002F5806290423FF455AF082255E7012243
:1022300053E7022251E703224FE704224DE705222C
:102240004BE7062249E702B070BD704700380140F5
:10225000003C014000380240000002400AB18161A8
:102260007047090481617047002800F0E08170B573
:1022700082B00446036813F0010F3BD09F4B9B686C
:1022800003F00C03042B2CD09C4B9B6803F00C0335
:10229000082B21D06368B3F5803F4FD0B3F5A02F52
:1022A00052D0964B1A6822F480321A601A6822F4CF
:1022B00080221A606368002B50D0FFF783FA05462E
:1022C0008E4B1B6813F4003F14D1FFF77BFA401BC1
:1022D0006428F5D90320B1E1884B5B6813F4800FC3
:1022E000D8D0864B1B6813F4003F03D06368002BE3
:1022F00000F09F81236813F0020F54D07F4B9B683E
:1023000013F00C0F3ED07D4B9B6803F00C03082BA1
:1023100033D0E368002B68D0794B01221A60FFF7B5
:1023200051FA0546754B1B6813F0020F54D1FFF7A5
:1023300049FA401B0228F5D903207FE16F4A136850
:1023400043F480331360B5E76C4B1A6842F4802283
:102350001A601A6842F480321A60ABE7FFF732FA6B
:102360000546664B1B6813F4003FC3D0FFF72AFAFB
:10237000401B6428F5D9032060E1604B5B6813F4CF
:10238000800FC6D15D4B1B6813F0020F03D0E368CA
:10239000012B40F05081594A136823F0F80321695A
:1023A00043EAC1031360236813F0080F42D0636946
:1023B0006BB3534B0122C3F8802EFFF703FA054697
:1023C0004E4B5B6F13F0020F34D1FFF7FBF9401B4C
:1023D0000228F5D9032031E1484A136823F0F803B5
:1023E000216943EAC1031360DDE7454B00221A600F
:1023F000FFF7E8F90546414B1B6813F0020FD2D0F6
:10240000FFF7E0F9401B0228F5D9032016E13C4B09
:102410000022C3F8802EFFF7D5F90546374B5B6FD6
:1024200013F0020F06D0FFF7CDF9401B0228F5D9B3
:10243000032003E1236813F0040F77D02F4B1B6CAC
:1024400013F0805F33D1002301932C4B1A6C42F0C0
:1024500080521A641B6C03F080530193019B012589
:10246000284B1B6813F4807F23D0A368012B34D042
:10247000052B38D0214B1A6F22F001021A671A6F10
:1024800022F004021A67A368002B3DD0FFF79AF9E7
:1024900006461A4B1B6F13F0020F46D1FFF792F955
:1024A000801B41F288339842F3D90320C6E000250F
:1024B000D6E7144A136843F480731360FFF782F978
:1024C0000646104B1B6813F4807FCED1FFF77AF9D4
:1024D000801B0228F5D90320B0E0084A136F43F0AF
:1024E00001031367CFE7054B1A6F42F004021A6726
:1024F0001A6F42F001021A67C5E700BF00380240B8
:102500000000474200700040FFF75CF90646524B5E
:102510001B6F13F0020F08D0FFF754F9801B41F234
:1025200088339842F3D9032088E0EDB9A369002BE2
:1025300000F08380484A926802F00C02082A51D0C9
:10254000022B17D0454B00221A66FFF73BF90446D1
:10255000414B1B6813F0007F42D0FFF733F9001B9B
:102560000228F5D9032069E03B4A136C23F080531D
:102570001364DBE7394B00221A66FFF723F905469F
:10258000354B1B6813F0007F06D0FFF71BF9401B8B
:102590000228F5D9032051E0E369226A1343626AF5
:1025A00043EA8213A26A5208013A43EA0243E26A0A
:1025B00043EA0263284A5360284B01221A66FFF758
:1025C00001F90446244B1B6813F0007F06D1FFF786
:1025D000F9F8001B0228F5D903202FE000202DE098
:1025E00000202BE0012B2BD01B4B5B6803F48001F8
:1025F000E269914226D103F03F02216A8A4223D147
:10260000616A47F6C0721A40B2EB811F1ED103F413
:102610004031A26A5208013AB1EB024F18D103F0DF
:102620007063E26AB3EB026F14D1002006E0012070
:102630007047012002E0012000E0002002B070BDE0
:102640000120FBE70120F9E70120F7E70120F5E78A
:102650000120F3E70120F1E7003802400000474283
:1026600008B5264B9B6803F00C03042B41D0082BC4
:1026700041D1224B5A6802F03F025B6813F4800F8D
:1026800012D01E4B5968C1F388111D480023A1FBCD
:102690000001FEF701FA194B5B68C3F301430133F4
:1026A0005B00B0FBF3F027E0144B5868C0F38810D0
:1026B0004FEA401CBCEB000C6EEB0E0E4FEA8E1383
:1026C00043EA9C634FEA8C11B1EB0C0163EB0E0300
:1026D000DB0043EA5173C90011EB000C43F1000326
:1026E000990200234FEA8C2041EA9C51FEF7D4F96D
:1026F000D1E7034800E0034808BD00BF00380240AE
:10270000001BB7000024F400002800F09B8070B587
:102710000D4604464F4B1B6803F007038B4208D25B
:10272000CBB24C4A1370136803F007038B4240F09E
:102730008B80236813F0020F17D013F0040F04D01E
:10274000454A936843F4E0539360236813F0080FFD
:1027500004D0414A936843F4604393603E4A9368CF
:1027600023F0F003A1680B439360236813F0010F7B
:1027700032D06368012B21D09A1E012A25D9364A0E
:10278000126812F0020F61D033498A6822F0030206
:1027900013438B60FFF716F806462F4B9B6803F038
:1027A0000C036268B3EB820F16D0FFF70BF8801BA7
:1027B00041F288339842F0D9032042E0264A126859
:1027C00012F4003FE0D101203BE0234A126812F0EE
:1027D000007FD9D1012034E01E4B1B6803F00703B2
:1027E000AB4207D9EAB21B4B1A701B6803F0070310
:1027F000AB422DD1236813F0040F06D0164A93681C
:1028000023F4E053E1680B439360236813F0080F4F
:1028100007D0114A936823F46043216943EAC10356
:102820009360FFF71DFF0C4B9B68C3F303130B4A28
:10283000D35CD8400A4B18600A4B1868FEF776FF45
:10284000002070BD012070470120FAE70120F8E761
:102850000120F6E7003C024000380240BC2101089C
:102860000000002008000020842801D003307047B9
:102870000020704708B500F0A5FD002008BD2DE937
:10288000F04387B00E464469C4B18569B5B1476865
:10289000D0F80080D0F81090B0F90800FFF7E4FFFE
:1028A00002950194009033464A464146384600F06E
:1028B000A9FC0590059807B0BDE8F0834468056859
:1028C0000769B0F90800FFF7CFFF05AB019300904F
:1028D0003346BAB22946204600F0CFFC0128E9D0A1
:1028E0000020E8E708B500B9012000F0B5FE00209F
:1028F00008BD00F1080343604FF0FF328260C360FF
:10290000036100230360704700230361704743683D
:102910004B609A688A60516099600861036801336E
:102920000360704730B40D68B5F1FF3F11D000F17E
:1029300008031C465B681A68AA42FAD963684B60B0
:1029400099608C606160086103680133036030BC8A
:1029500070470469F2E70369416882688A604168E8
:1029600051605A68824206D0002202611A68013A18
:102970001A601868704782685A60F5E782B00023D1
:1029800001930D4B1B68B3F1FF3F08D04FF050038C
:1029900083F31188BFF36F8FBFF34F8FFEE74FF0C4
:1029A000500383F31188BFF36F8FBFF34F8F019BE9
:1029B000002BFCD002B070470C00002008480068D3
:1029C000006880F308884FF0000080F3148862B636
:1029D00061B6BFF34F8FBFF36F8F00DF00BF000002
:1029E00008ED00E0DFF80C00016841F470010160BF
:1029F0007047000088ED00E04FF0807340F8043C21
:102A000021F0010140F8081C054B40F80C3C40F84F
:102A1000202C6FF0020340F8243C4438704700BF7C
:102A20007D290008000000000000000000000000F8
:102A3000074B19680868B0E8F04F80F30988BFF3C6
:102A40006F8F4FF0000080F311887047AFF3008064
:102A5000BC4800204FF0500383F31188BFF36F8F01
:102A6000BFF34F8F0B4A136801331360012B00D063
:102A700070474FF0E023D3F8043D13F0FF0FF7D079
:102A80004FF0500383F31188BFF36F8FBFF34F8F65
:102A9000FEE700BF0C000020094B1B6843B94FF054
:102AA000500383F31188BFF36F8FBFF34F8FFEE79F
:102AB000013B034A13600BB983F31188704700BFD1
:102AC0000C000020000000000000000000000000DA
:102AD000EFF30980BFF36F8F154B1A681EF0100FCC
:102AE00008BF20ED108A20E9F04F10602DE90900A1
:102AF0004FF0500080F31188BFF34F8FBFF36F8FFB
:102B000000F0D0FD4FF0000080F3118809BC196877
:102B10000868B0E8F04F1EF0100F08BFB0EC108A44
:102B200080F30988BFF36F8F704700BFAFF3008059
:102B3000BC48002008B54FF0500383F31188BFF361
:102B40006F8FBFF34F8F00F07FFC28B14FF0E02371
:102B50004FF08052C3F8042D002383F3118808BD81
:102B60004FF0E022002313619361054B1B68054978
:102B7000A1FB03139B09013B5361072313617047BA
:102B800000000020D34D62104FF0E023D3F8002D59
:102B90003D4B9A421CD04FF0E023D3F8002D3B4B25
:102BA0009A421ED030B583B0394B1A78D2B2019216
:102BB000FF221A701B78DBB28DF803309DF80330CA
:102BC00003F05003334A1370334B07221A601BE0A3
:102BD0004FF0500383F31188BFF36F8FBFF34F8F14
:102BE000FEE74FF0500383F31188BFF36F8FBFF3FD
:102BF0004F8FFEE7284A1368013B13609DF80330AE
:102C00005B00DBB28DF803309DF8033013F0800FCA
:102C1000F0D1214B1B68032B08D04FF0500383F3F6
:102C20001188BFF36F8FBFF34F8FFEE71B021A4A65
:102C3000136003F4E0631360019BDBB2144A13706A
:102C40004FF0E024D4F8203D43F47003C4F8203D55
:102C5000D4F8203D43F07043C4F8203DFFF780FFD7
:102C600000250E4B1D60FFF7BDFED4F8343F43F046
:102C70004043C4F8343FFFF7A1FE00F013FDFFF717
:102C80007DFE284603B030BD71C20F4170C20F41B6
:102C900000E400E0940C0020980C00200C000020C0
:102CA000124A12F0070F1ED0D11D21F00701C1F505
:102CB000705313440A460E480260002141601344D9
:102CC000083B23F007030B48036059601960991A09
:102CD00051601360084B1960084B1960084B4FF0A6
:102CE00000421A6070474FF47053E4E7A00C0020D4
:102CF000B44800209C0C0020A8480020A4480020D4
:102D0000A0480020164B1A461B688342FBD351682B
:102D100002EB010C844509D0416800EB010C6345CE
:102D200009D00360904219D0106070474068014498
:102D300051601046F0E710B40A4C2468A3420BD04F
:102D40005B681944416013681B680360904200D0BF
:102D500010605DF8044B70470460F7E7704700BFF0
:102D6000B44800209C0C002070B5054600F064FBC0
:102D7000364B1B68A3B1364B1B681D424ED135B193
:102D8000083515F0070F02D025F007050835002D8E
:102D900046D0304B1B68AB4251D32F4A146804E035
:102DA000FFF77EFFE7E722461C466368AB4202D28C
:102DB0002368002BF7D1254B1B68A34241D016682E
:102DC00008362368136063685B1B102B10D96019E9
:102DD00010F0070F08D04FF0500383F31188BFF3B2
:102DE0006F8FBFF34F8FFEE743606560FFF78AFF89
:102DF000626818490B689B1A0B60184909688B4276
:102E000001D216490B60124B1B6813436360002309
:102E10002360134A13680133136002E0002600E0C8
:102E2000002600F09DFB16F0070F0CD04FF050036A
:102E300083F31188BFF36F8FBFF34F8FFEE7002638
:102E4000EFE70026EDE7304670BD00BF9C0C002088
:102E5000A0480020A4480020B4480020A848002032
:102E6000AC480020002834D038B50446A0F108054D
:102E700050F8043C174A1268134208D14FF050032F
:102E800083F31188BFF36F8FBFF34F8FFEE750F8C6
:102E9000081C41B14FF0500383F31188BFF36F8FCB
:102EA000BFF34F8FFEE723EA020340F8043C00F033
:102EB000C3FA54F8041C084A13680B4413602846EC
:102EC000FFF720FF054A13680133136000F048FB49
:102ED00038BD7047A0480020A4480020B04800201A
:102EE000084B1B681B6823B9074B4FF0FF321A6071
:102EF0007047044B1B68DB68DB685A68024B1A603A
:102F0000704700BFC0480020944900202DE9F047D9
:102F100080460D4617469946089EDDF824A00A9C77
:102F20009200A521206B09F059FC236B07F1804228
:102F3000013A03EB820727F00707A5B34FF0000C17
:102F4000BCF10F0F09D815F80C3004EB0C0282F815
:102F5000343013B10CF1010CF2E7002384F8433054
:102F6000062E00D90626E66266640025A564201DAB
:102F7000FFF7CAFC04F11800FFF7C6FC2461C6F194
:102F80000706A6616462E56484F850504A464146EB
:102F90003846FFF731FD2060BAF1000F01D0CAF8C2
:102FA0000040BDE8F087002384F83430D8E7000003
:102FB00038B5002407E004EB840293000E4818445F
:102FC000FFF797FC0134062CF5D90C4D2846FFF786
:102FD00090FC0B4C2046FFF78CFC0A48FFF789FC5D
:102FE0000948FFF786FC0948FFF783FC084B1D6082
:102FF000084B1C6038BD00BFC8480020684900204D
:103000007C490020A0490020CC490020B84900207C
:10301000C0480020C448002010B50446FFF71AFD40
:10302000214A136801331360204B1B685BB1204BAE
:103030001B686BB91D4B1B68DA6AE36A9A4207D8B2
:103040001A4B1C6004E0194B1C601368012B28D03C
:10305000184A136801331360E06A01238340164A5B
:1030600011680B43136000EB8000211D134B03EB31
:103070008000FFF74CFCFFF70FFD0D4B1B687BB189
:103080000A4B1B68DA6AE36A9A4209D24FF0E023DE
:103090004FF08052C3F8042DBFF34F8FBFF36F8FF3
:1030A00010BDFFF785FFD3E754490020BC4800203E
:1030B000B44900206049002064490020C84800202D
:1030C00010B5044690F8513063B1012B11D0022B9A
:1030D0000ED04FF0500383F31188BFF36F8FBFF30F
:1030E0004F8FFEE7006BFFF7BDFE2046FFF7BAFEED
:1030F00010BDFFF7B7FEFBE70F4B1B68D3B110B550
:10310000FFF7A8FC0D4BDB68DC68201DFFF723FCF4
:103110000B4A1368013B1360074A1368013B1360B5
:10312000FFF7BAFC2046FFF7CBFF034B1B68002BD1
:10313000E6D110BD704700BF58490020CC4900209F
:103140005449002008B5FFF7D7FF074B1B68012B38
:10315000F9D94FF0E0234FF08052C3F8042DBFF3AC
:103160004F8FBFF36F8FEEE7C848002070B504465D
:103170000D461D4B1E681D4B18680430FFF7EBFB16
:1031800048B91A4B1B68DB6A01229A4018490B6840
:1031900023EA02030B60B4F1FF3F0DD03444134B1C
:1031A0001B685C60A64210D9124B18680F4B196857
:1031B0000431FFF7B7FB70BD002DEFD00B4B196842
:1031C00004310D48FFF7A3FBF5E70C4B1868074BDC
:1031D00019680431FFF7A6FB094B1B68A342EAD923
:1031E000074B1C60E7E700BFE0490020BC48002017
:1031F00064490020C4480020B8490020C04800208D
:103200009449002030B587B00B9C7CB10C9DB5B1C2
:1032100054250495049D542D1AD04FF0500383F388
:103220001188BFF36F8FBFF34F8FFEE74FF050034E
:1032300083F31188BFF36F8FBFF34F8FFEE74FF01B
:10324000500383F31188BFF36F8FBFF34F8FFEE7F7
:10325000049D0C9D2C63022485F8514000240394A6
:10326000029505AC01940A9C0094FFF74FFE0C9860
:10327000FFF7D2FE059807B030BD2DE9F04385B0C9
:103280000746884614461E469000FFF76DFD00B3C2
:1032900081465420FFF768FD0546B0B1C0F8309074
:1032A000E5B1002385F85130039302950D9B0193FE
:1032B0000C9B00933346224641463846FFF726FED4
:1032C0002846FFF7A9FE012005E04846FFF7CAFDA2
:1032D000E6E74FF0FF3005B0BDE8F0834FF0FF3078
:1032E000F9E7000038B50446FFF7B4FB002C34D0F2
:1032F000251D2846FFF72FFB70B9E26A02EB820317
:103300009B002749CB583BB9012303FA02F2254918
:103310000B6823EA02030B60A36A1BB104F11800D7
:10332000FFF719FB204A1368013313601F4B1B681A
:10333000A34215D01E4A1368013B13602046FFF7D5
:10334000BFFEFFF7CDFDFFF7A7FB1A4B1B681BB1B4
:10335000164B1B68A3420CD038BD144B1C68C7E742
:1033600029461548FFF7D3FA144A1368013313604E
:10337000E9E7134B1B6843B14FF0500383F3118807
:10338000BFF36F8FBFF34F8FFEE74FF0E0234FF097
:103390008052C3F8042DBFF34F8FBFF36F8FDBE76D
:1033A000C84800206449002060490020BC48002033
:1033B00054490020B4490020CC490020584900203D
:1033C0005C49002010B588B000240594069407AA33
:1033D00006A905A8FEF72EF8059B0293069B01930C
:1033E00000942346079A0E490E48FFF70BFF0E4B39
:1033F000186090B14FF0500383F31188BFF36F8FC3
:10340000BFF34F8F094B4FF0FF321A60084B012278
:103410001A60084B1C60FFF7B7FB08B010BD00BF77
:10342000CC21010845310008904900209449002032
:10343000B4490020E0490020024A136801331360B8
:10344000704700BF5C490020F8B53A4B1B68002B61
:1034500069D1394B1D6801351D60C5B9374B1B68F3
:103460001B6843B14FF0500383F31188BFF36F8F94
:10347000BFF34F8FFEE7314A1168314B1868106077
:103480001960304A136801331360FFF729FD2E4B92
:103490001B68AB423DD900272C4B1B68DB6A03EB52
:1034A00083039A002A4B9B58012B00D90127294BF3
:1034B0001B68002B3CD001273AE001271F4B1B68FB
:1034C0001B6843B31D4B1B68DB68DC6863689D4267
:1034D00026D3261D3046FFF73EFAA36A1BB104F13E
:1034E0001800FFF738FAE36A01229A401A4908687F
:1034F00002430A6003EB83039A00314614481044E8
:10350000FFF705FAE26A114B1B68DB6A9A42D4D2D4
:10351000D4E70027D2E70C4B4FF0FF321A60BBE72D
:10352000094A1360B8E70D4A136801331360002796
:103530003846F8BD5C490020E0490020C048002022
:10354000C44800209849002094490020BC4800202D
:10355000C8480020E4490020644900209C4900201C
:1035600038B5354B1B6843B94FF0500383F31188CE
:10357000BFF36F8FBFF34F8FFEE7FFF76BFA2E4B52
:103580001A68013A1A601B68002B4FD12B4B1B683D
:103590000BB900244BE00024294B1B681BB3284BBC
:1035A000DB68DC6804F11800FFF7D5F9251D284613
:1035B000FFF7D1F9E06A01238340224A11680B43E7
:1035C000136000EB800029461F4B03EB8000FFF7E0
:1035D0009EF9E26A1D4B1B68DB6A9A42DCD31C4BE6
:1035E00001221A60D8E70CB1FFF77AFC194B1C686E
:1035F00084B9174B1C68D4B14FF0E0234FF08052D0
:10360000C3F8042DBFF34F8FBFF36F8F01240EE07B
:10361000013C07D0FFF718FF0028F9D00C4B01221E
:103620001A60F5E70B4B00221A60E2E70024FFF76F
:1036300033FA204638BD00BF5C49002054490020C1
:10364000A049002064490020C8480020BC48002050
:10365000E44900209C49002010B5A8B10446104B55
:103660001B6843B14FF0500383F31188BFF36F8F92
:10367000BFF34F8FFEE7FFF7DFFE00212046FFF785
:1036800075FDFFF76DFF48B94FF0E0234FF0805212
:10369000C3F8042DBFF34F8FBFF36F8F10BD00BF72
:1036A0005C490020204B1B681BB1204B01221A6093
:1036B00070471E4B00221A601D4B1B68B3FA83F340
:1036C000DBB2C3F11F0303EB83018A0019498A5857
:1036D00042B94FF0500383F31188BFF36F8FBFF3EC
:1036E0004F8FFEE7134903EB830082000A445068C2
:1036F0004068506003EB830C4FEA8C02083211449F
:10370000884209D003EB83039A000A4B13445B6899
:10371000DA68094B1A607047406862469100054AB2
:103720000A445060EEE700BF5C490020E4490020F5
:1037300064490020C8480020BC480020054B1B6895
:1037400033B1054B1B680BB1002070470220704756
:1037500001207047B44900205C490020DFF834D0D4
:103760000D480E490E4A002302E0D458C4500433D9
:10377000C4188C42F9D30B4A0B4C002301E01360B0
:103780000432A242FBD3FDF7C7FF08F097FCFDF718
:1037900021FF70470000022000000020C409002023
:1037A000643C0108C4090020784A0020FEE70000BC
:1037B00010B5B02000F0B0FE0446154A012100F01B
:1037C000B3F8144B1C60134B1868B0F91020124B5F
:1037D0001A804269114B1A60B0F90C20104B1A8004
:1037E000B0F90E200F4B1A80B0F91C200E4B1A8036
:1037F0000E4BB3F9001000F00FF90A20FFF72CFF71
:10380000E1E7B021204600F059FA00F059FA00BF74
:10381000080A0020F8490020F0490020EC49002067
:10382000F2490020F4490020E8490020100000205F
:1038300010B588B00DF1040C084C0FCCACE80F00AB
:1038400094E807008CE80700002101A8FFF717F8AB
:10385000034B1868FFF746FD08B010BD582101085A
:10386000340A00200346084693F91B101A7A5200C6
:10387000023A8154B3F91A201B7A5B00013BC2540F
:1038800070470A784B7843EA022383818A78CB78A1
:1038900043EA0223C3810A794B7943EA0223038274
:1038A0008B798374704700000A784B7843EA0223CF
:1038B000838191F802C0CA7842EA0C22C28191F851
:1038C00004C04A7942EA0C22028207EE903AF8EEEE
:1038D000E77ADFED036A87EEA67A80ED057A704716
:1038E000610BB64102460846137A042B0BD892F9B5
:1038F0001B105B00023BC154B2F91A10137A5B0033
:10390000013BC1547047082B0CD892F91B10043BA3
:103910005B00023BC154B2F91A10137A043B5B00FE
:10392000013BC154704700002DE9F04104460F46A9
:1039300016462B4B03600023436043818381C38180
:103940000382837400224261038343838383C3839E
:10395000244B03604FF40078C0F8208040F2FF133E
:103960004362082380F828301F4D00F12C0CAE462E
:10397000BEE80F00ACE80F009EE803008CE80300EF
:1039800004F1440E05F1180CBCE80F00AEE80F007E
:103990009CE803008EE8030004F12C0104F15C00B4
:1039A00000F0B2F804F1440104F1840000F0ACF836
:1039B000C4F8AC802772666096F82030DBB2012B29
:1039C00002D02046BDE8F0813046FDF7F3FC3046DA
:1039D000FEF740F802213046FEF78DF9F1E700BF0F
:1039E000F82101081C2201087421010808B50A46C3
:1039F000037A042B02D9082B07D908BD90F8283088
:103A0000016A4068FDF7FEFCF7E790F82830416A4C
:103A10004068FDF7F7FCF0E710B504468183B0F984
:103A20000E3000EE103A07EE901AF8EEE70AB8EE04
:103A3000C00A5C3000F014F8BDEEC00A10EE103A77
:103A40006383064900230B604B6023681B68204694
:103A5000984701462046FFF7C9FF10BD044A0020E1
:103A600070EEC00A90ED087A30EE877A80ED087A21
:103A700090ED026A27EE066AD0ED097AB4EEE77A95
:103A8000F1EE10FA01DDC0ED087A90ED087AF1EE62
:103A9000676AB4EEE67AF1EE10FA01D5C0ED086A75
:103AA000F4EEC67AF1EE10FA01D4F0EE467AF4EEB6
:103AB000E76AF1EE10FA01DCF0EE676AD0ED017A08
:103AC00067EEA07A90ED047A30EEC77A90ED036A43
:103AD00027EE067A77EE877A77EEA67A90ED067A69
:103AE000B4EEE77AF1EE10FA01D4B0EE677A90ED19
:103AF000070AB4EEC70AF1EE10FA01DCB0EE470A8D
:103B0000C0ED040A704700000B4A02600022026107
:103B100002620A6842604A6882608A68C260CA6853
:103B20004261D1ED047AC0ED067AF1EE677AC0ED1C
:103B3000077A4A69426270473C22010810B588B092
:103B400004460E4B00211960596001AAFEF72EF8B9
:103B50000B4B9C4201D008B010BD9DF80430094ABF
:103B6000116891F8AC105B1ADBB2013B52F82300EC
:103B700003685B6801499847EDE700BF144A0020DD
:103B8000080A0020F849002030B589B00546002415
:103B900006E0054B01AA00212846FEF707F801348C
:103BA000012CF6DD09B030BD0C4A002008B5034BEE
:103BB000984200D008BDFEF7DFF9FBE7080A0020B5
:103BC00070B5036884B000249E69039410231546E1
:103BD0000293CDE900446B461268B0479DF804306B
:103BE00003F00603062B03BF009B2B600120204639
:103BF00004B070BD0098904214BF012006207047A9
:103C000010B5034B0360044600F02EFD204610BDA6
:103C10007822010810B5054B0360044600F024FD2E
:103C20002046082100F04AF8204610BD78220108FD
:103C30002DE9F041069F0899099E8F42044690465F
:103C40001D460CD02946204600F012FD20B101236C
:103C5000376086F80480B3710020BDE8F0810799D1
:103C600000F006FD0028EDD086F805800020BDE8B4
:103C7000F08100BF38B515461C4600F0F9FC00B9CC
:103C800038BD082206232560E260237138BD00BFDD
:103C90002DE9F041064617461D460C4600F0E8FCAB
:103CA00048B9032D07D823683A46314620465B6958
:103CB000BDE8F0411847BDE8F08100BF06F05ABDED
:103CC0001EB400F08DF81EBCFCF78CFFF0B5027836
:103CD000472A83B00C461D4619D0264E0020336873
:103CE00001909B683046984778B1019B1B6801930F
:103CF00002272368314620461E6901AA0123B047E6
:103D000010BB0746384603B0F0BD0127F1E7437802
:103D10004E2BE2D18378552BDFD1C378432BDCD1F6
:103D20000379462B1AD00379432BD6D143792B2B19
:103D3000D3D183792B2BD0D1C379012BCDD808D007
:103D400050F8206C5830CAE7019B2B60384603B00E
:103D5000F0BD50F8200C50F8786CC0E743794F2B39
:103D6000E1D18379522BDED1C379002BDBD1024E16
:103D70001846B4E7B8220108B022010810B504467D
:103D800000F07AF8224612F82039472B04D08368D5
:103D900023BB8260012010BD63784E2BF7D1A3783E
:103DA000552BF4D1E378432BF1D12379432BEED17A
:103DB00063792B2BEBD1A3792B2BE8D1E379012B62
:103DC000E5D854F8043C0133012B44F8043CE1D11C
:103DD000836844F8083C8260012010BD00F074FB49
:103DE00008B500F049F8836883B393F82020472A88
:103DF00004D00022826003F1200008BD93F8212046
:103E00004E2AF6D193F82220552AF2D193F8232096
:103E1000432AEED193F82420432AEAD193F82520AF
:103E20002B2AE6D193F826202B2AE2D193F82720DB
:103E3000012ADED8DA69013ADA61002ADBD1996910
:103E4000816000229A6103F1200008BD00F03CFB74
:103E5000704700BF704700BF004870479C220108B0
:103E600010B504210446FFF729FF204610BD00BF0E
:103E7000004870471C4A0020004870471C4A002038
:103E8000502870B51DD0844600F00F000C2855D87E
:103E9000DFE800F0074426071E545454542A220732
:103EA0001E00104650F8046B4EB10CF07004102C3C
:103EB00008BF11460E441CF0800F18BF36681E6004
:103EC00070BDD01C20F0030050F8046B1E6070BD64
:103ED000104650F8086BE7E7104630F9026BE3E74D
:103EE000104630F8026BDFE700261046344610F823
:103EF000015B05F07F0E0EFA04FE15F0800F46EA16
:103F00000E0604F10704F2D11F2CCDD86D06CBD5D7
:103F10004FF0FF3505FA04F42643C6E700261046A5
:103F2000344610F8015B05F07F0E0EFA04FE2D06F4
:103F300046EA0E0604F10704F3D4B5E707F0AEFE37
:103F4000FF2808B5034619D003F07002302A08464E
:103F500016D005D8202A09D1BDE8084007F09BBE3D
:103F6000402A09D1BDE8084007F082BE02D813F00C
:103F7000600F03D007F092FE502AFBD1002008BD4D
:103F8000BDE8084007F084BEF8B50C461546064665
:103F900008B107F06DFE286014F8017BFF2F28D1CF
:103FA0006860204610F8013BFF2B32D0102300241C
:103FB0002B75224610F8011B01F07F039340090680
:103FC00044EA030402F10702F4D40444EC6010F85C
:103FD000013B6B750024224610F8011B01F07F03A2
:103FE00093401C430B0602F10702F5D404442C61F4
:103FF000F8BD31463846FFF7A3FF224601462B1D88
:104000003846FFF73DFF0446204610F8013BFF2BE2
:10401000CCD12B750024D9E72DE9F04F00F0030433
:1040200093B00023012C08938846174613D0022C26
:1040300008D13946404607F005FE40B9082013B0C4
:10404000BDE8F08F002C00F0968007F027FE0920D5
:1040500013B0BDE8F08F0DF1300B10F00804CDF86F
:1040600000B000F09F8044F0020202920C910C22FA
:104070001946384607F056F9384607F0FFFD039019
:104080000028D6D05A4603993846FFF77DFF3946B7
:1040900005469DF84400FFF753FF0DF12C0900235E
:1040A0000E901946CDF800900F22384607F014F90B
:1040B0000B9B23F001035E1E109B9D4280F0C58088
:1040C0009DF8454000212046FFF73AFF2A46014669
:1040D00009AB2046FFF7D4FE9DF845500446002169
:1040E0002846FFF72DFF224601460AAB2846FFF778
:1040F000C7FE9DF84550044600212846FFF720FFE3
:10410000224601464B462846FFF7BAFE00240546E4
:10411000214615F8012B02F07F038B401C43130648
:1041200001F10701F5D40C9B099A1344B3421AD943
:10413000029BDC0731D50024049400231946CDF8F6
:10414000009038460D22089D07F0C6F8039BC8F87A
:104150002C30049BC8F830300B9BC8F82030C8E9DD
:10416000095406206BE70A9A1344B34277D8109B90
:10417000AB42A5D8DCE702073FF55BAF0123029312
:104180000DF1300B0023CDF800B00C221946384653
:10419000CDF8308007F0C6F86EE7029B19075BD5B3
:1041A00000F092F90D6A23460D222146384607F0A9
:1041B00093F80C9B9D4202D002230293E2E7234630
:1041C00021460C22CDF800B03846CDF8308007F0FB
:1041D000A9F8D8F830200492D8E90A43002A3BD045
:1041E000002C039361DB03250DF12C0900231A46F3
:1041F0001946CDF800903846CDF82C8007F092F89B
:10420000002319460122CDF8009038460B9407F0A0
:1042100089F8002319460F22CDF80090384607F0A0
:104220005BF80B9A0499CDF8009002F001020A4362
:1042300000230B9238460F22194607F073F8022D1F
:1042400022D0072013B0BDE8F08F029BDE073FF5B8
:1042500072AF029B1A07A3D4404606F057FB0B9B94
:10426000002B3FF4E6AE0D9A13440493002C45D185
:10427000002B3FF4DEAE029BDD073FF5DAAE029B7A
:1042800018070FD40225B1E74046FFF777FD072056
:10429000D5E65B46059F002B3FF4CBAE029BD907CA
:1042A0003FF5C7AE00240225A0E76FF040431B1B7B
:1042B00006930DF12C095A4603993846FFF764FE20
:1042C0009DF844003946FFF73BFE069A0E900546DE
:1042D0000F9850F8223000EB820033B102460023E1
:1042E00052F8041F01330029FAD1C8E90A35042322
:1042F000C8F83400C8F83030032577E7109E049BD7
:10430000013C2644002B3FF494AE029B002E00F0AB
:10431000C78013F008031A4600F0B880472388F8D6
:1043200000304E2388F80130552388F802304323AB
:1043300088F80330462388F804304F2388F8053086
:10434000522388F80630002388F8073000230597A9
:10435000CDF81CB017469B460024224616F8011BD8
:1043600001F07F039340080644EA030402F10702C8
:10437000F4D41F2A05D8490603D5012393405B4294
:104380001C43002530462A4610F8011B01F07F032C
:1043900093401D430B0602F10702F5D41F2A05D8EE
:1043A0004B0603D5012393405B421D43002C15D0DF
:1043B00017DC6FF040420F9B121B002F45D053F8C3
:1043C000223023B1002D3FF464AF2E44C4E7029B9A
:1043D000059FDB073FF5B1AE00F084F84FF0010B0D
:1043E000F0E79DF84400FF284ED000F00703042BAF
:1043F0003FF62BAE01A252F823F000BF1144000893
:104400004B40000845440008114400083F440008A0
:10441000A3005B420F9A0E991A444B46FFF730FDFA
:104420000B9931B108AB00224046FFF74FFC002842
:10443000C8D0029B059FDB073FF57FAE5CE7E3003A
:104440005B42E7E763005B42E4E711460692089AA5
:104450000B920A4653F8211003EB820A19B90BE0BC
:104460005AF8041F41B151444B4600224046FFF721
:104470002DFC0028F4D0A5E7029B059FDDF81CB0B9
:10448000D8073FF55AAE16E70023C3E798F8073080
:10449000012B0CBF58F8203C08F15803089355E74E
:1044A000DA073FF5C6AD029B13F008047FF4FAAEBD
:1044B000E8E606F0ADFA73E608B5804707F0EEFBD4
:1044C00006F0A6FA07F0EAFB08B5034B1868BFF33D
:1044D0005B8FFFF7F1FF00BF1800002008B5804791
:1044E000FFF7F2FF08B5034B1868BFF35B8FFFF7C8
:1044F000F5FF00BF14000020024B1868BFF35B8F6C
:10450000704700BF18000020024B1868BFF35B8F94
:10451000704700BF14000020012838BF012010B5EB
:104520000446204607F0EEFD00B110BD06F0A8FBE2
:1045300008B18047F5E7042006F08EF9024B034AE4
:104540000349036006F03AFB90240108B1470008D4
:104550006C24010810B5034B03600446FFF750FBC1
:10456000204610BD8C23010810B5054B036004469E
:10457000FFF746FB20460C21FFF7A0FB204610BDAD
:104580008C23010870B582B00446069E96420D4603
:1045900009D0A06804680696246A2946A44602B099
:1045A000BDE87040604719460192009300F060F842
:1045B000DDE900320028ECD0062002B070BD00BF5B
:1045C0002DE9F04F0C4681B01946DDE90A69DDE9B5
:1045D0000C879B460546924600F04AF880B946454E
:1045E00022D0A86821460468CDE90C87CDE90A6984
:1045F000E4695B465246A44601B0BDE8F04F60470F
:10460000002C3E6087F804A009DB2644B0450CBFAF
:1046100006260126BE71002001B0BDE8F08F0234ED
:10462000F9D10123BB71F6E74946284600F020F88E
:104630000028D6D087F805A0EDE700BF2DE9F041AE
:1046400006460F4614461D46FFF714FB48B9B068EE
:10465000016822468C692B463946A446BDE8F041E4
:104660006047BDE8F08100BF704700BF0020704781
:10467000814211D008B5406803782A2B0AD04968D6
:104680000B782A2B08BF0131FCF7EEFBB0FA80F063
:10469000400908BD002008BD0120704770B53B4BA4
:1046A0001A7882B0002A41D101241C7006F0DAFA8F
:1046B000002831D04468364D23782A2B08BF0134B6
:1046C00000224FF0FF30114601AB0190204605F06B
:1046D000EFFF2B683022DB68064601212D4807F0EA
:1046E000B7FC019B93B12B682046D96807F02AFBE1
:1046F0002B682948DB680222012107F0A9FC019BF5
:1047000013B9304607F006FD06F074FA2B68304600
:10471000D96807F017FBEBE71D4B20481B682D22DB
:10472000DB68214607F094FC07F0B8FA184B1C48E8
:104730001B681D22DB68012107F08AFC07F0AEFA36
:1047400001290C4619D106F063F903689B68984764
:104750002B682146DB6804460B22124807F078FCE0
:104760002B682046D96807F0EDFA2B680A20D96833
:1047700007F0A2FA06F08AF9D6E706F049F906F042
:1047800085F9D1E706F082F9FFF79AFA284A002066
:104790001C000020E82301081C2401082024010833
:1047A000C823010850240108004870475C24010810
:1047B00010B5034B03600446FFF74AFB204610BDCB
:1047C0009024010810B5054B03600446FFF740FB39
:1047D00020460421FFF772FA204610BD90240108FC
:1047E000312970B5864645D828292AD80A2920D9E2
:1047F000A1F10B0C324C5FFA8CFC012000FA0CF09A
:104800000440002C4DD0D2B1DEE90540844216DAD6
:10481000DEF8105004EB840C05EB8C00013400260C
:10482000C0E90166CEF8144005F82C10C0E9032356
:1048300070BD042930D9A1F109000128E3D9002075
:1048400070BDA1F129000828F9D801A454F820F07E
:10485000094800089D480008994800083F4800089A
:104860009948000809480008094800080748000856
:104870009D480008A1F13400C0B21D28DFD8114CBA
:104880004FF0010C0CFA00FC0CEA0404002CBAD125
:104890000D480CEA000070B1002AD0D0002BB3D133
:1048A000CDE710F47F1FAFD1084C0440002CC6D0D8
:1048B000002AF3D1C3E71CF0505CC0D0A4E700BFCE
:1048C000FE1F802F0711C701F82E000A01004000CB
:1048D000F0B5C26811786E29864625D03039CBB242
:1048E000092B2BD80026164D00206FF0004402E063
:1048F000B0EBD30F15DC0132CEF80C201378303B2F
:104900005FFA83FC00EB800001EB4000BCF1090F73
:104910001946A4EB0303A5FB0373E9D906B1404292
:10492000F0BD4FF0FF30F0BD531CC36051783039FB
:10493000CAB2092A02D81A460126D4E70020F0BDDF
:10494000CDCCCCCC10B5044629B9C3681A786AB16D
:104950005A1CC260197868290CD0762906D12046E5
:10496000FFF7B6FFE3681A785F2A01D0002010BD78
:104970000133E3602046FFF7ABFFE3681A785F2A54
:10498000F4D10133E360012010BD00BF10B4C3684F
:104990000A461978522910D04F2903D010465DF8E5
:1049A000044B7047C46A202103340133C462C360DE
:1049B0005DF8044B0023FFF713BFC46A1F210234C4
:1049C000F3E700BF002966D038B505460C46A3685A
:1049D000012B39DCD5F81C01B0F5806F03F1010320
:1049E00032DC2278A360531E502B2DD8DFE803F071
:1049F0003131314C2C2C2D2D31313131313131319E
:104A0000313131313131312C31313131313131319B
:104A10003131424231312C31313131293131313171
:104A2000312C2D313131313131313131313131317F
:104A3000312C2C31292929292C3131313131313195
:104A40003100E468002CC2D138BD2469002CBED1ED
:104A5000FAE7E168431CC5F81C312846FFF7B2FFAE
:104A600021692846FFF7AEFFD5F81C31013BC5F898
:104A70001C3138BDE1680B78052BEBD1D5F8383106
:104A80000133C5F83831E5E7D5F84431E168013341
:104A9000C5F84431DEE77047034648B1002304E01F
:104AA000C2682AB10069013310B102782F2AF7D009
:104AB00018467047C3681A785F2A01D001207047F2
:104AC00010B55A1CC2605A785F2A044604D0FFF71A
:104AD000FFFEC043C00F10BD0233C360FFF7F8FEF6
:104AE000002809DB092805DDE3681A785F2A03D16D
:104AF0000133E360012010BD002010BD20B909E0A2
:104B000039B10069013930B103782F2BF8D000207A
:104B10007047C06870477047F0B514465268A56882
:104B20004B1C1344AB4283B00E46074611D8E568D0
:104B30006DB963682068324618443946FCF7F0F8CE
:104B4000D4E9003233449D5463683344636003B056
:104B5000F0BDE268002AFAD155B16D00AB42FCD835
:104B60002068294607F0BCFE38B12060A560DEE76A
:104B7000022B4FF00205F0D8F2E70190206807F011
:104B8000C9FA019B0122C4E90033C4E90232DEE71D
:104B90000378722B07D0562B05D04B2B03D0442B18
:104BA00003D00020704701207047407800F0DF03F9
:104BB0004F2BF8D0773801288CBF00200120704798
:104BC000D0F80031FF2B70B504460D4606D05A1CB4
:104BD000C4F80021E55484F8045170BD002619463C
:104BE00080F8FF60D0E942329847D4F8283101229A
:104BF0001344C4F828313346C4F80021E55484F83E
:104C0000045170BDD0F810319BB1CA685B68002AAE
:104C10001B6909DB23B907E042B11B69013A1BB1EB
:104C200019782F29F8D0002318467047DB681846FA
:104C300070470122C0F81821F6E700BF002940D0D4
:104C40002DE9F041DFF884801F4F05460C46012610
:104C50002378082B13D8082B1ED8DFE803F00D1D8E
:104C60001D1D1D270D232300172B15D9183BDBB263
:104C700027FA03F3DB070FD50020BDE8F0812C2BCA
:104C8000F2D9323BDBB21B2B06D806FA03F212EA4A
:104C9000080FF1D1012B05D0E1682846FFF7CEFFC0
:104CA0000028EAD12469002CD2D1E5E72146284624
:104CB000FFF7A8FF0028DFD003782F2BDCD1BDE859
:104CC000F0810020704700BF018010000100E30C5C
:104CD0002DE9F041044608460D46FCF731FA40B391
:104CE000013DD4F800112F184FF0000809E00B46E1
:104CF000BD4201F10101C4F80011E65484F80461D9
:104D000017D0FF2915F8016FF1D1D4E9423284F8A8
:104D1000FF8020469847D4F8283101210B44C4F87D
:104D200028310023BD42C4F80011E65484F8046120
:104D3000E7D1BDE8F08100BF38B5C3681A78542ABE
:104D400024D15A1CC2605A785F2A044620D06E2AA9
:104D50001CD0FFF7BDFD411C18D4E3681A785F2A08
:104D600014D10133D4E905208242E3600EDA2369CD
:104D700002EB820C03EB8C0001320025C0E90155E7
:104D80006261052203F82C20C16038BD002038BDC7
:104D900002330021E6E700BF2DE9F04188B00A4662
:104DA00004461A4901A807F0EBFF01A8FCF7C8F96F
:104DB00040B301ADD4F800112F184FF0000809E0FE
:104DC0000B46BD4201F10101C4F80011E65484F81C
:104DD000046117D0FF2915F8016BF1D1D4E94232F3
:104DE00084F8FF8020469847D4F8283101210B44ED
:104DF000C4F828310023BD42C4F80011E65484F8F9
:104E00000461E7D108B0BDE8F08100BF9C2401082F
:104E100070B50446FFF75CFD051E46DDE668636875
:104E20009B1B9D423EDCA26873195207E36004D5C8
:104E3000725D242A04BF0133E360092D22DD2A4973
:104E40000822304607F01EFC30B9337A2E2B2ED0C4
:104E50005F2B2CD0242B2AD0D4E90532934221DABF
:104E6000206903EB830200EB820001330022C0E9DA
:104E70000122636100230370C0E90133C0E90365C7
:104E8000A06270BDD4E9053293420BDA206903EBCE
:104E9000830200EB820001330022C0E9012263613A
:104EA000002EE7D10020A06270BD002070BD737A93
:104EB0004E2BD1D1E26A6369A1691632521B8B4233
:104EC000E262EFDA226903EB830081000133636160
:104ED00002EB80000023C0E901335354034A152339
:104EE000C0E90323DFE700BFA0240108AC240108C8
:104EF0002DE9F041C3681A78532A31D15A1CC26097
:104F00005A780446A2B39A1CC2605A785F2A44D0E9
:104F1000A2F13003D8B2092826D800210DE0303B99
:104F200099421DD8E06802781946451C1AB1E5601F
:104F300002785F2A3BD0A2F13003D8B2092801EBF6
:104F4000C103A2F1410C02EB8303E8D9BCF1190FB4
:104F500006D801EBC10302EB8303373B9942E1D949
:104F600000252846BDE8F081A2F141001928D4D9D6
:104F7000A36803F00803002B14BF0125002500D10E
:104F8000B9B93F4B742103F1A80001E013F81C1FCD
:104F9000914215D08342F9D1E2E70023226A9A4276
:104FA000DED9E26952F823502846BDE8F08101338A
:104FB000F4E7E3681B78433B012B98BF0D46E0E71D
:104FC0005E69002E54D0D4E905208242D3F81880BF
:104FD00053DA276902EB820C07EB8C014FF0000ECD
:104FE000C1E901EE01324FF0180E626107F82CE0C2
:104FF000C1E90368A162002D37D0D3E90371E36AE8
:1050000082420B44E36236DA236902EB820003EB4F
:10501000800501320026C5E901666261182203F8A5
:105020002020C5E90371E3681A78422A99D1A66A5B
:105030000133E3602046FFF7EBFE2A4603464D218D
:105040002046FFF7CDFBE3681A78422A0546EFD0E9
:10505000A662002884D0D4E90832934280DAE1695C
:105060005A1C41F8230022627BE7D3E90171C6E7AD
:10507000D4E90520BFE70025D5E70021BAE700BF46
:10508000CC3401082DE9F043C26883B004461046D1
:10509000FFF77EFD002866D113785A2B31D82F2BCD
:1050A0005CD9303B2A2B59D8DFE813F08C008C00F8
:1050B0008C008C008C008C008C008C008C008C0090
:1050C0005800580058005800580058005800D601A1
:1050D0005800D900ED005800E70060015800580062
:1050E00058005800580018028C00CB00BD00580032
:1050F000AF0095016E01BE015800580058005800DD
:105100008C00613B5FFA83FCBCF1190F26D8C44DBB
:10511000012101FA0CF10D40EDB1C24903EB83030B
:1051200001EB8301D4E90535AB4280F2C5832669E2
:1051300003EB830C06EB8C050133C5E901006361C9
:10514000272306F82C30E960E36A496801320B44F2
:10515000E260E36203E0BCF1140F48D0002528466A
:1051600003B0BDE8F083002201A9204601F0B4FAA3
:1051700005460028F2D0E3681B78462B20461ED057
:10518000FFF780FF28600028E8D003781F3B012B41
:1051900005D8019AC368C2602A6801922B60019DFC
:1051A000002DDBD0D4E908329342D7DAE1695A1CEA
:1051B000284641F82350226203B0BDE8F08300F096
:1051C000FDFBDFE7204601F06BFD05460190002D59
:1051D000C4D0D4E908329342C0DAE16941F82350DF
:1051E000019D5A1C2846226203B0BDE8F0830132BB
:1051F000E2602046FFF70CFE2B460246282120469F
:10520000FFF7EEFA05460190E1E70132E260204641
:10521000FFF738FF0023024623212046FFF7E0FA7C
:1052200005460190D3E70132E2602046FFF72AFFEE
:105230000023024622212046FFF7D2FA05460190BC
:10524000C5E70132E2602046FFF71CFF002302465B
:1052500024212046FFF7C4FA05460190B7E7013242
:10526000E2602046FFF70EFF00230246252120467C
:10527000FFF7B6FA05460190A9E7204600F09EFB2D
:1052800005460190A3E7531CE3605378002B3FF4DD
:1052900065AF931CE3605378463B302B3FF65EAF1F
:1052A00001A151F823F000BF495500085D510008E5
:1052B0005D5100085D5100085D5100085D51000816
:1052C0005D5100085D5100085D5100085D51000806
:1052D0005D5100085D5100085D5100085D510008F6
:1052E0000D5500085D5100085D5100085D51000832
:1052F0005D5100085D5100085D5100085D510008D6
:105300005D5100085D5100085D5100085D510008C5
:105310005D510008E15500085D510008B5550008D1
:10532000CF5700089F5700083D5600085D51000800
:105330000D5600086F5700085D5100085D510008C8
:105340005D5100085D5100083F5700085D5100089D
:10535000275700085D5100085D510008F756000806
:105360000D550008C75600086D5600080132E2606E
:105370002046FFF787FE0023024626212046FFF73E
:105380002FFA0546019022E72046FFF7D5FCE66894
:1053900001903378492B05467FF419AF636B002BDE
:1053A00040F0578200283FF4D9AED4E908218A4260
:1053B000BFF6D4AEE16941F82200013222623278B0
:1053C000493A012A05D80136E660204600F00CFE75
:1053D00003462A461CE05378A3F13002092A05D976
:1053E0005F2B03D0413B192B00F22682002120467F
:1053F000FFF77EFDE36801901A78492A05467FF49D
:10540000AEAE0133E360204600F0EEFD2A460346CF
:1054100004212046FFF7E4F905460190D7E600BFD6
:10542000FF7BEC03942D01080132E2602046FFF778
:10543000EFFCE36801901A78492A054600F0E18103
:105440002046FFF71FFE2B46024621212046FFF78C
:10545000C7F905460190BAE6551CE56053785F2B05
:1054600000F0CD81303B092B00F2D8812B469C46C1
:105470000133E360197830390929F8D9D4E90510E6
:105480008142ACEB0202BFF669AE276901EB8100F5
:1054900007EB80064FEA800E002001318242C6E908
:1054A000010061617FF75AAEC6E9010007F80E00FE
:1054B000C6E903529CF801201D465F2A7FF44EAED8
:1054C0000135E5602046FFF7DDFD324603462A211F
:1054D0002046FFF785F90546019078E60132E26043
:1054E0002046FFF7CFFD054600283FF437AE2046A3
:1054F000FFF7C8FD034600283FF430AE2A462B21B3
:105500002046FFF76DF90546019060E60123256B03
:105510002363204600F030FE256302460023442129
:105520002046FFF75DF90546019000283FF416AECE
:10553000E3681A78002A3FF411AE5A1CE2601B7827
:10554000452B7FF40BAE44E6D4E905318B4280F263
:10555000B581216903EB830001EB8005013300264F
:10556000C5E9016663612C2301F820309378019529
:10557000303BDBB2092B94BF012333462B8202D888
:105580002046FFF7A5F92046FFF77CFDE8600028DC
:105590003FF4E4AD2046FFF79BF9E268137813B1BE
:1055A000531CE3601378A3F17303B3FA83F35B092D
:1055B0006B82D4E5D4E905329342BFF6CFAD2269C0
:1055C000C04903EB8305A8000133636102EB850545
:1055D0000023C5E9013313540E23C5E90313BEE5C7
:1055E000D4E905329342BFF6B9AD2269B64903EB5F
:1055F0008305A8000133636102EB85050023C5E93B
:10560000013313540423C5E90313A8E5D4E9053293
:10561000934280F26B81226903EB830102EB8105E7
:1056200001330020C5E901006361272302F821301E
:10563000E36AA64AEA600433E36290E5D4E90532FE
:10564000934280F25381226903EB830102EB8105CF
:1056500001330020C5E901006361272302F82130EE
:10566000E36A9B4AEA600933E36278E593785F2B4B
:1056700000F01481D4E905329342BFF66FAD226980
:1056800003EB830102EB810501330020C5E9010032
:105690006361432302F821302046FFF719F9E860DF
:1056A000E3681A785F2A7FF459AD0133E36020463E
:1056B000FFF7E8FC2A4603462D212046FFF790F825
:1056C0000546019083E5D4E90532934280F20E81CC
:1056D000226903EB830102EB810501330020C5E958
:1056E00001006361272302F82130E36A794AEA6006
:1056F0000733E36233E5D4E90532934280F2F68062
:10570000226903EB830102EB810501330020C5E927
:1057100001006361272302F82130E36A6E4AEA60E0
:105720000833E3621BE52046FFF7ACFC002302468A
:105730004C212046FFF754F80546019047E5D4E98F
:105740000532934280F2D280226903EB830102EB9F
:10575000810501330020C5E901006361272302F8B8
:105760002130E36A5D4AEA601133E362F7E4D4E989
:105770000532934280F2BA80226903EB830102EB87
:10578000810501330020C5E901006361272302F888
:105790002130E36A524AEA600833E362DFE4D4E985
:1057A0000532934280F2A280226903EB830102EB6F
:1057B000810501330020C5E901006361272302F858
:1057C0002130E36A474AEA600A33E362C7E4D4E976
:1057D0000532934280F28A80226903EB830102EB57
:1057E000810501330020C5E901006361272302F828
:1057F0002130E36A3C4AEA600933E362AFE4002601
:105800005EE60133E360204600F0EEFB2A460346E5
:1058100004212046FEF7E4FF054611E60123256B2F
:105820002363204600F0A8FC2563064600283FF4C9
:1058300095ACE5682A7840E6204601F031FA054645
:10584000019000283FF48AAC0378182B7FF4C1AC98
:1058500085E4731CE3602046D4F81490D4F82080CB
:10586000E76A00F0C1FBE3681B78492B06D0E660CD
:10587000C4F81490C4F82080E762A8E4002D3FF437
:105880006DACD4E908139942BFF668ACE26942F8FE
:105890002150013103462A462162B9E50332012332
:1058A000256BE2602363204600F066FC2563054615
:1058B00000287FF4F5AE51E4C368FFDE00231B70BF
:1058C000FFDE00BFCC240108C4240108D82F010842
:1058D0009C2F0108EC2F0108003001082830010836
:1058E00014300108C42F0108B02F01080023DB6821
:1058F000FFDE00BF30B5C26883B000230193137888
:10590000002B34D0044601AD4F2B0CD009D82E2BE0
:1059100001D0452B0AD1019848B30369CBB103B03C
:1059200030BD522B02D15378452BF4D02046FFF7DF
:10593000A9FB024600232E212046C2B1FEF750FFEC
:105940002860A0B1E268137800F11005002BDBD1CC
:10595000E1E7C26811782729E1D1D268117C0929D1
:10596000DDD1E16A5268891AE162C360D7E700209D
:1059700003B030BD70B5C3681A784A2A05461AD0FC
:1059800081B12846FFF77EFB044690B12846FFF719
:10599000B1FF034668B1224628462921BDE8704080
:1059A000FEF71EBF28460C46FFF7A4FF034600285B
:1059B000F1D1002070BD0133C360E2E710B50446A9
:1059C000806810F480200BD1E26BB2F5006F06D82E
:1059D000511CE368E1631978462907D0E26310BDE2
:1059E000E3681A78462A01D0002010BD5A1CE260F4
:1059F0005A78592A04BF0233E36001212046FFF799
:105A0000B9FF01462046FEF7C1FFE3681A78452A30
:105A100004BF0133E360A36818BF00205B03DED43A
:105A2000E26B013ADAE700BFF8B5C3681F780646B3
:105A300077BB4FF0000E3D4D482100228B1A03EB3F
:105A4000D37302EB6303180105EB031C2C58207879
:105A5000B84206D094BF5A1C19468A42EED10020A3
:105A6000F8BD60787045F5D1D6E905329342F6DA93
:105A7000326903EB830102EB810001330024C0E9AA
:105A800001447361322302F82130C0F80CC0F8BD24
:105A90005A1CC26093F801E01F78BEF1000F02D1DA
:105AA000762FC8D0C5E79A1CC260762F93F801E024
:105AB0001FD1AEF13004E3B2092BBCD8FFF7A8F92F
:105AC000D6E905318B420246C9DA376903EB830117
:105AD00007EB810001330025C0E90155890073619E
:105AE000002ABCD03323C0E901557B54C0E90342EE
:105AF000F8BD632F9FD1BEF1760F9CD1D0E90C3455
:105B0000B3FA83F35B094363FFF7BCFA736B024696
