:020000040800F2
:100000000000022099470008E1190008E3190008E0
:10001000E5190008E7190008E919000800000000C8
:10002000000000000000000000000000513900083E
:10003000EB19000800000000F1390008ED19000874
:10004000E9470008E9470008E9470008E9470008D0
:10005000E9470008E9470008E9470008E9470008C0
:10006000E9470008031A00080D1A0008E9470008CC
:10007000E9470008E9470008E9470008E9470008A0
:10008000E9470008E9470008E9470008E947000890
:10009000191A0008E9470008E9470008291A00086A
:1000A000E9470008E9470008E9470008E947000870
:1000B000E9470008E9470008E9470008E947000860
:1000C000E9470008E9470008E9470008E947000850
:1000D000E9470008E9470008E9470008E947000840
:1000E000E9470008E9470008E9470008E947000830
:1000F000E9470008E9470008E9470008E947000820
:10010000E9470008E9470008E9470008E94700080F
:10011000E9470008E9470008E9470008E9470008FF
:10012000E9470008E9470008E9470008E9470008EF
:10013000E9470008E9470008E9470008E9470008DF
:10014000E9470008E9470008E9470008E9470008CF
:10015000E9470008E9470008E9470008E9470008BF
:10016000E9470008E9470008E9470008E9470008AF
:10017000E9470008E9470008E947000800000000D7
:08018000E9470008E947000807
:1001C00081F0004102E000BF83F0004330B54FEA08
:1001D00041044FEA430594EA050F08BF90EA020F75
:1001E0001FBF54EA000C55EA020C7FEA645C7FEA08
:1001F000655C00F0E2804FEA5454D4EB5555B8BF2B
:100200006D420CDD2C4480EA020281EA030382EA9B
:10021000000083EA010180EA020281EA0303362D2D
:1002200088BF30BD11F0004F4FEA01314FF4801C00
:100230004CEA113102D0404261EB410113F0004F12
:100240004FEA03334CEA133302D0524263EB4303C9
:1002500094EA050F00F0A780A4F10104D5F1200E67
:100260000DDB02FA0EFC22FA05F2801841F10001C2
:1002700003FA0EF2801843FA05F359410EE0A5F196
:1002800020050EF1200E012A03FA0EFC28BF4CF0C7
:10029000020C43FA05F3C01851EBE37101F000457D
:1002A00007D54FF0000EDCF1000C7EEB00006EEB8A
:1002B0000101B1F5801F1BD3B1F5001F0CD3490814
:1002C0005FEA30004FEA3C0C04F101044FEA44526B
:1002D00012F5800F80F09A80BCF1004F08BF5FEAF2
:1002E000500C50F1000041EB045141EA050130BDD2
:1002F0005FEA4C0C404141EB0101013C28BFB1F5E4
:10030000801FE9D291F0000F04BF01460020B1FA2E
:1003100081F308BF2033A3F10B03B3F120020CDA01
:100320000C3208DD02F1140CC2F10C0201FA0CF0DF
:1003300021FA02F10CE002F11402D8BFC2F1200C44
:1003400001FA02F120FA0CFCDCBF41EA0C019040FA
:10035000E41AA2BF01EB0451294330BD6FEA040443
:100360001F3C1CDA0C340EDC04F11404C4F120022E
:1003700020FA04F001FA02F340EA030021FA04F340
:1003800045EA030130BDC4F10C04C4F1200220FA97
:1003900002F001FA04F340EA0300294630BD21FAD5
:1003A00004F0294630BD94F0000F83F4801306BF9B
:1003B00081F480110134013D4EE77FEA645C18BF8F
:1003C0007FEA655C29D094EA050F08BF90EA020F26
:1003D00005D054EA000C04BF1946104630BD91EA1E
:1003E000030F1EBF0021002030BD5FEA545C05D121
:1003F0004000494128BF41F0004130BD14F5800460
:100400003CBF01F5801130BD01F0004545F0FE41D3
:1004100041F470014FF0000030BD7FEA645C1ABF08
:10042000194610467FEA655C1CBF0B46024650EA3F
:10043000013406BF52EA033591EA030F41F400216B
:1004400030BD00BF90F0000F04BF0021704730B5F1
:100450004FF4806404F132044FF000054FF00001C6
:1004600050E700BF90F0000F04BF0021704730B587
:100470004FF4806404F1320410F0004548BF40425C
:100480004FF000013EE700BF42004FEAE2014FEAB1
:1004900031014FEA02701FBF12F07F4393F07F4F8C
:1004A00081F06051704732F07F4208BF704793F08F
:1004B0007F4F04BF41F40021704730B54FF46074A2
:1004C00001F0004521F000411CE700BF50EA0102A5
:1004D00008BF704730B54FF000050AE050EA01024E
:1004E00008BF704730B511F0004502D5404261EBBE
:1004F00041014FF4806404F132045FEA915C3FF4FF
:10050000D8AE4FF003025FEADC0C18BF03325FEA9B
:10051000DC0C18BF033202EBDC02C2F1200300FA4C
:1005200003FC20FA02F001FA03FE40EA0E0021FA71
:1005300002F11444BDE600BF70B54FF0FF0C4CF45F
:10054000E06C1CEA11541DBF1CEA135594EA0C0F11
:1005500095EA0C0F00F0DEF82C4481EA030621EA4C
:100560004C5123EA4C5350EA013518BF52EA033587
:1005700041F4801143F4801338D0A0FB02CE4FF039
:100580000005E1FB02E506F00042E0FB03E54FF069
:100590000006E1FB03569CF0000F18BF4EF0010E61
:1005A000A4F1FF04B6F5007F64F5407404D25FEA5D
:1005B0004E0E6D4146EB060642EAC62141EA555110
:1005C0004FEAC52040EA5E504FEACE2EB4F1FD0C52
:1005D00088BFBCF5E06F1ED8BEF1004F08BF5FEAD0
:1005E000500E50F1000041EB045170BD06F0004682
:1005F00046EA010140EA020081EA0301B4EB5C042F
:10060000C2BFD4EB0C0541EA045170BD41F4801126
:100610004FF0000E013C00F3AB8014F1360FDEBF4B
:10062000002001F0004170BDC4F10004203C35DA27
:100630000C341BDC04F11404C4F1200500FA05F3AA
:1006400020FA04F001FA05F240EA020001F000424B
:1006500021F0004110EBD37021FA04F642EB0601C1
:100660005EEA430E08BF20EAD37070BDC4F10C04EB
:10067000C4F1200500FA04F320FA05F001FA04F2AF
:1006800040EA020001F0004110EBD37041F100019B
:100690005EEA430E08BF20EAD37070BDC4F12005A6
:1006A00000FA05F24EEA020E20FA04F301FA05F20E
:1006B00043EA020321FA04F001F0004121FA04F2B6
:1006C00020EA020000EBD3705EEA430E08BF20EA86
:1006D000D37070BD94F0000F0FD101F000464000C0
:1006E00041EB010111F4801F08BF013CF7D041EA42
:1006F000060195F0000F18BF704703F00046520046
:1007000043EB030313F4801F08BF013DF7D043EA16
:100710000603704794EA0C0F0CEA135518BF95EACC
:100720000C0F0CD050EA410618BF52EA4306D1D153
:1007300081EA030101F000414FF0000070BD50EA72
:10074000410606BF1046194652EA430619D094EAFC
:100750000C0F02D150EA013613D195EA0C0F05D1E6
:1007600052EA03361CBF104619460AD181EA03013A
:1007700001F0004141F0FE4141F470014FF00000F2
:1007800070BD41F0FE4141F4780170BD70B54FF08D
:10079000FF0C4CF4E06C1CEA11541DBF1CEA13550D
:1007A00094EA0C0F95EA0C0F00F0A7F8A4EB0504EF
:1007B00081EA030E52EA03354FEA013100F08880E6
:1007C0004FEA03334FF0805545EA131343EA1263AF
:1007D0004FEA022245EA111545EA10654FEA002664
:1007E0000EF000419D4208BF964244F1FD0404F51D
:1007F000407402D25B084FEA3202B61A65EB030579
:100800005B084FEA32024FF480104FF4002CB6EB35
:10081000020E75EB030E22BFB61A754640EA0C00B5
:100820005B084FEA3202B6EB020E75EB030E22BFF5
:10083000B61A754640EA5C005B084FEA3202B6EB36
:10084000020E75EB030E22BFB61A754640EA9C00F5
:100850005B084FEA3202B6EB020E75EB030E22BFC5
:10086000B61A754640EADC0055EA060E18D04FEA83
:10087000051545EA16754FEA06164FEAC30343EA23
:1008800052734FEAC2025FEA1C1CC0D111F4801FF0
:100890000BD141EA00014FF000004FF0004CB6E7E9
:1008A00011F4801F04BF01430020B4F1FD0C88BF88
:1008B000BCF5E06F3FF6AFAEB5EB030C04BFB6EB93
:1008C000020C5FEA500C50F1000041EB045170BD86
:1008D0000EF0004E4EEA113114EB5C04C2BFD4EBB3
:1008E0000C0541EA045170BD41F480114FF0000E37
:1008F000013C90E645EA060E8DE60CEA135594EAB3
:100900000C0F08BF95EA0C0F3FF43BAF94EA0C0FB5
:100910000AD150EA01347FF434AF95EA0C0F7FF42A
:1009200025AF104619462CE795EA0C0F06D152EA7E
:1009300003353FF4FDAE1046194622E750EA410662
:1009400018BF52EA43067FF4C5AE50EA41047FF473
:100950000DAF52EA43057FF4EBAE12E74FF0FF3CD8
:1009600006E000BF4FF0010C02E000BF4FF0010CA9
:100970004DF804CD4FEA410C7FEA6C5C4FEA430C22
:1009800018BF7FEA6C5C1BD001B050EA410C0CBF71
:1009900052EA430C91EA030F02BF90EA020F0020D3
:1009A000704710F1000F91EA030F58BF994208BF3A
:1009B00090422CBFD8176FEAE37040F001007047F7
:1009C0004FEA410C7FEA6C5C02D150EA013C07D14E
:1009D0004FEA430C7FEA6C5CD6D152EA033CD3D099
:1009E0005DF8040B704700BF8446104662468C4693
:1009F0001946634600E000BF01B5FFF7B7FF0028C6
:100A000048BF10F1000F01BD4DF808EDFFF7F4FFEE
:100A10000CBF012000205DF808FB00BF4DF808ED79
:100A2000FFF7EAFF34BF012000205DF808FB00BF9C
:100A30004DF808EDFFF7E0FF94BF012000205DF8BE
:100A400008FB00BF4DF808EDFFF7CEFF94BF012073
:100A500000205DF808FB00BF4DF808EDFFF7C4FF6C
:100A600034BF012000205DF808FB00BF4FEA410CB5
:100A70007FEA6C5C02D150EA013C0AD14FEA430C98
:100A80007FEA6C5C02D152EA033C02D14FF00000D5
:100A900070474FF0010070474FEA4102B2F1E04366
:100AA00024BFB3F5001CDCF1FE5C0DD901F0004C55
:100AB0004FEAC0024CEA5070B2F1004F40EB8300A5
:100AC00008BF20F00100704711F0804F21D113F1D1
:100AD0003872BCBF01F00040704741F480114FEA0A
:100AE0005252C2F11802C2F1200C10FA0CF320FA93
:100AF00002F018BF40F001004FEAC1234FEAD323B0
:100B000003FA0CFC40EA0C0023FA02F34FEA430319
:100B1000CCE77FEA625307D150EA01331EBF4FF0A2
:100B2000FE4040F44000704701F0004040F0FE40BD
:100B300040F40000704700BF53B94AB9002908BF0C
:100B400000281CBF4FF0FF314FF0FF3000F0E2B83B
:100B5000ADF1080C6DE904CE0CF0C6FEDDF804E042
:100B6000DDE9022304B0704700F1340191E8380058
:100B70009C46A6464CF8045D90E8FF0FE54600BD94
:100B800090EC210B704700BF80EC210B704700BF39
:100B900090EC200B704700BF80EC200B704700BF2B
:100BA000D0EC200B704700BFC0EC200B704700BF9B
:100BB000F0EC0201F0EC0211F0EC0221F0EC023159
:100BC000F0EC0241F0EC0251F0EC0261F0EC027149
:100BD000F0EC0281F0EC0291F0EC02A1F0EC02B139
:100BE000F0EC02C1F0EC02D1F0EC02E1F0EC02F129
:100BF000704700BFE0EC0201E0EC0211E0EC0221E2
:100C0000E0EC0231E0EC0241E0EC0251E0EC026188
:100C1000E0EC0271E0EC0281E0EC0291E0EC02A178
:100C2000E0EC02B1E0EC02C1E0EC02D1E0EC02E168
:100C3000E0EC02F1704700BFB0FC0181B0FC019113
:100C4000B0FC01A1B0FC01B1704700BFA0FC018164
:100C5000A0FC0191A0FC01A1A0FC01B1704700BF64
:100C6000EC4600B52DE900502DE9FF1F4FF00003C1
:100C70002DE90C0001A90DF0EBF8DDF840E012B011
:100C8000704700BFEC4600B52DE900502DE9FF1F6D
:100C90004FF000032DE90C0001A90DF015F9DDF866
:100CA00040E012B0704700BFEC4600B52DE900509F
:100CB0002DE9FF1F4FF000032DE90C0001A90DF0F5
:100CC00025F9DDF840E012B0704700BFEC4600B5F2
:100CD0002DE900502DE9FF1F4FF000032DE90C0016
:100CE00001AB0DF0E9F8DDF840E012B0704700BF4D
:100CF000EC4600B52DE900502DE9FF1F4FF0000331
:100D00002DE90C0001AA0DF05DF9DDF840E012B00C
:100D1000704700BF704700BF0000000000000000E7
:100D200001F0FF01102A2BDB10F0070F08D010F89C
:100D3000013B013A8B422DD010F0070F42B3F6D1A0
:100D4000F0B441EA012141EA014122F007047FF0B9
:100D500000070023F0E80256083C85EA010586EA10
:100D6000010685FA47F5A3FA87F586FA47F6A5FA4C
:100D700087F68EB9EED1F0BC01F0FF0102F0070258
:100D800032B110F8013B013A83EA010313B1F8D103
:100D90000020704701387047002D06BF35460338E4
:100DA000073815F0010F07D1013015F4807F02BF1D
:100DB000013015F4C03F0130F0BC0138704700BF6E
:100DC000844641EA000313F003036DD1403A41D356
:100DD00051F8043B40F8043B51F8043B40F8043B15
:100DE00051F8043B40F8043B51F8043B40F8043B05
:100DF00051F8043B40F8043B51F8043B40F8043BF5
:100E000051F8043B40F8043B51F8043B40F8043BE4
:100E100051F8043B40F8043B51F8043B40F8043BD4
:100E200051F8043B40F8043B51F8043B40F8043BC4
:100E300051F8043B40F8043B51F8043B40F8043BB4
:100E400051F8043B40F8043B51F8043B40F8043BA4
:100E5000403ABDD2303211D351F8043B40F8043B44
:100E600051F8043B40F8043B51F8043B40F8043B84
:100E700051F8043B40F8043B103AEDD20C3205D354
:100E800051F8043B40F8043B043AF9D2043208D04C
:100E9000D2071CBF11F8013B00F8013B01D30B88BE
:100EA00003806046704700BF082A13D38B078DD09C
:100EB00010F003038AD0C3F10403D21ADB071CBF6E
:100EC00011F8013B00F8013B80D331F8023B20F8D8
:100ED000023B7BE7043AD9D3013A11F8013B00F811
:100EE000013BF9D20B7803704B7843708B78837099
:100EF0006046704700000000000000000000000095
:100F0000A2EB0300704700BF02780B78012A28BFCC
:100F10009A42F5D16DE9044540EA0104CDE9026742
:100F20006FF0000C4FEA447212B380EA010414F02F
:100F3000070F6AD100F0070420F0070004F0030552
:100F400021F007014FEAC505F0E8042314F0040F6F
:100F5000F1E804670CFA05F462EA040266EA0406A2
:100F60000AD063EA0403624667EA0407664603E0C0
:100F7000F0E80423F1E8046782FA4CF582EA0604FB
:100F8000A4FA8CF46CBB83FA4CF583EA0705A5FA46
:100F90008CF595B950E9022351E9026782FA4CF5C4
:100FA00082EA0604A4FA8CF483FA4CF583EA070576
:100FB000A5FA8CF52543DBD09CB92DBAB5FA85F49A
:100FC00024F0070427FA04F1DDE9026723FA04F3A9
:100FD00003F0FF0001F0FF01FDE80445A0EB010074
:100FE000704724BAB4FA84F424F0070426FA04F112
:100FF000DDE9026722FA04F202F0FF0001F0FF01CE
:10100000FDE80445A0EB0100704714F0030F3CD14C
:1010100010F0030428D150F8082B51F8083B82FA4D
:101020004CF582EA0305A5FA8CF55DB950F8042C5D
:1010300051F8043C82FA4CF582EA0305A5FA8CF5D6
:10104000002DE8D02DBAB5FA85F424F0070423FA70
:1010500004F122FA04F202F0FF0001F0FF01FDE8C2
:101060000445A0EB010070474FEAC40420F00300E0
:1010700050F8082B21F0030151F8083B0CFA04F456
:1010800062EA040263EA0403C9E710F003041AD019
:10109000A1EB040120F00300E40750F8042B06D074
:1010A0000FD28B785FFAA2F4E41A06D12BB1CB7879
:1010B0005FFAB2F4E41A00D11BB920465DF8104B78
:1010C000704701F1040150F8042BCC0721F0030113
:1010D00051F8043B48D824D222F07F4482FA4CF5E0
:1010E00094EA1325A5FA8CF50AD165B951F8043BA9
:1010F00084EA0204B4EB036F0ED150F8042BEBE743
:101100004FEA132355E035F07F454DD10878FDE8CF
:101110000445C0F1000070474FEA126203F0FF037C
:1011200047E002EA1C4482FA4CF594EA1345A5FA1A
:101130008CF50AD165B951F8043B84EA0204B4EB9A
:10114000034F0CD150F8042BEBE74FEA134330E088
:1011500015EA1C4528D10B884FEA124229E04FEAD4
:10116000124203EA1C4324E002F0FF0482FA4CF529
:1011700094EA1365A5FA8CF50AD165B951F8043BD8
:1011800084EA0204B4EB032F09D150F8042BEBE7F7
:101190004FEA13630DE015F0FF0F05D10B684FEA1E
:1011A000122223F07F4304E04FF00000FDE80445E5
:1011B000704712BA1BBA82FA4CF482EA0304A4FA0A
:1011C0008CF5B5FA85F402FA04F203FA04F34FEA57
:1011D0001260FDE80445A0EB1360704700000000BA
:1011E00000000000000000000000000000000000FF
:1011F00000000000000000000000000000000000EF
:1012000090F800F06DE9024520F007016FF0000C46
:1012100010F0070491F820F040F049804FF00004EE
:101220006FF00700D1E9002391F840F000F10800C9
:1012300082FA4CF2A4FA8CF283FA4CF3A2FA8CF301
:101240004BBBD1E9022382FA4CF200F10800A4FA68
:101250008CF283FA4CF3A2FA8CF3E3B9D1E90423BC
:1012600082FA4CF200F10800A4FA8CF283FA4CF3F3
:10127000A2FA8CF37BB9D1E9062301F1200182FAAD
:101280004CF200F10800A4FA8CF283FA4CF3A2FAB3
:101290008CF3002BC6D0002A04BF04301A4612BAC1
:1012A000B2FA82F2FDE8024500EBD2007047D1E9C4
:1012B000002304F00305C4F100004FEAC50514F053
:1012C000040F91F840F00CFA05F562EA05021CBF24
:1012D00063EA050362464FF00004A9E74FEA4102C2
:1012E00012F5001215D211D56FF47873B3EB625278
:1012F00012D94FEAC12343F0004343EA505311F09F
:10130000004F23FA02F018BF404270474FF0000030
:10131000704750EA013005D111F0004008BF6FF06E
:10132000004070474FF00000704700BF0348044B77
:10133000834202D0034B03B118477047EC090020E9
:10134000EC090020000000000548064B1B1AD90FCD
:1013500001EBA301491002D0034B03B118477047BA
:10136000EC090020EC0900200000000010B5064C3C
:10137000237843B9FFF7DAFF044B13B10448AFF306
:1013800000800123237010BDEC0900200000000044
:101390005C4D010808B5054B1BB105490548AFF385
:1013A0000080BDE80840FFF7CFBF00BF000000008D
:1013B000F00900205C4D010808B50D480D4B036095
:1013C0000323436000238360C3604FF41022026153
:1013D0004FF400124261037643768376C376037737
:1013E000437700F059FC00B908BD00F0FBF9FBE7BA
:1013F000300A00200064004010B588B00023039339
:1014000004930593069307930268184B9A4201D000
:1014100008B010BD0024019403F5EA331A6C42F0C1
:1014200000721A641A6C02F000720192019A02941E
:101430001A6B42F008021A631B6B03F00803029355
:10144000029B03230393022204920693092307932A
:1014500003A9074801F070F822460521142001F085
:1014600011F8142001F046F8D2E700BF00640040F4
:10147000000C024008B502680F4B9A4213D0026874
:101480000E4B9A4213D00E4900238B610122CA6190
:101490000B604B608B60CB600B610A620E234B626A
:1014A00000F0A0FC08BD064B01225A61E7E7044B9F
:1014B0000E225A61E7E700BF006400400068004068
:1014C000080A002010B588B0002405940494029105
:1014D0008DF81C40069301AB02A900F04DFD08B940
:1014E00008B010BD00F07EF9FAE708B5012002F05F
:1014F00085F9FBE7034B0360034B0B60802313600C
:10150000704700BF600C0020600A002010B58EB04C
:10151000124C0DF11C0CA646BEE80F00ACE80F0003
:101520009EE807008CE80700002107A802F033F9C5
:101530000B4B1860EE4604F11C0CBCE80F00AEE843
:101540000F009CE807008EE807000021684602F0C3
:1015500022F9044B18600EB010BD00BF784D010891
:10156000580A00205C0A00202DE9F0478CB00024C6
:101570000794089409940A940B9400945A4B1A6B9C
:1015800042F002021A631A6B02F002020092009A01
:1015900001941A6B42F001021A631A6B02F0010205
:1015A0000192019A02941A6B42F008021A631A6BB4
:1015B00002F008020292029A03941A6B42F00402AB
:1015C0001A631A6B02F004020392039A04941A6BD2
:1015D00042F080021A631A6B02F080020492049AAD
:1015E00005941A6B42F040021A631A6B02F0400233
:1015F0000592059A06941A6B42F020021A631B6B3F
:1016000003F020030693069B384E0122402130460A
:1016100001F088F8DFF8E0A022464FF40061504660
:1016200001F080F8DFF8D49001221021484601F043
:1016300079F82F4F01221146384601F073F8402304
:1016400007930125089509950A9507A9304600F0EA
:1016500073FF082307934FF40418CDF820800995F1
:1016600007A9304600F068FF4FF400630793089520
:1016700009940A9407A9504600F05EFF10230793CF
:101680000895099502260A9607A9484600F054FFD6
:1016900030230793CDF82080099507A9154800F05D
:1016A0004BFF0795089509950A9607A9384600F05B
:1016B00043FF22460521092000F0E4FE092000F046
:1016C00019FF224605210A2000F0DCFE0A2000F066
:1016D00011FF22460521172000F0D4FE172000F04C
:1016E00009FF0CB0BDE8F087003802400018024046
:1016F0000004024000080240001C024000000240BA
:1017000008B50B480B4B03600B4B43600023836011
:10171000C3604FF48042026143618361C36103622D
:1017200001F016F800B908BD00F05CF8FBE700BF57
:10173000B40C0020005C0040801A06002DE9F04146
:1017400088B00023039304930593069307930268DC
:10175000204B9A4202D008B0BDE8F08100250095E8
:101760001D4C236B43F004032363236B03F004033A
:101770000093009B0195236B43F001032363236BCC
:1017800003F001030193019B4FF4007303934FF0A7
:101790001208CDF81080032706970426079603A9A0
:1017A0000E4800F0C9FE4FF480730393CDF810800B
:1017B00005950697079603A9094800F0BDFE029516
:1017C000236C43F400032364236C03F400030293AB
:1017D000029BC0E7005C0040003802400008024065
:1017E0000000024072B6FEE700B595B0302200213D
:1017F00008A80DF01FFE002303930493059306939E
:1018000007930193204A116C41F080511164126CCE
:1018100002F080520192019A02931C4B1A6842F422
:1018200080421A601B6803F480430293029B0123E9
:1018300008934FF48033099302230E934FF48002F0
:101840000F9206221092A82211921293042313934E
:1018500008A801F05BF898B90F23039302230493BF
:10186000002305934FF4A05306934FF4805307933E
:10187000052103A801F09AFA20B915B05DF804FB20
:10188000FFF7B0FFFFF7AEFF0038024000700040E6
:1018900008B500F0D5F9FFF7A7FFFFF765FEFFF7E2
:1018A0008BFDFFF72DFF00F009F800F069F904F057
:1018B00091FAFFF72BFE01F05FFFFEE708B50F4836
:1018C0000F4B03604FF48273436000238360C36057
:1018D00002220261012242614FF4007282613822C9
:1018E000C2610362436283620A23C36201F0C0FBE8
:1018F00000B908BDFFF776FFFBE700BF080D002029
:1019000000300140F0B589B00023039304930593A0
:101910000693079302681E4B9A4201D009B0F0BDAE
:101920000024009403F584335A6C42F480525A64C4
:101930005A6C02F480520092009A01941A6B42F0A1
:1019400002021A631A6B02F002020192019A0294D7
:101950001A6B42F001021A631B6B03F0010302933E
:10196000029B182303930227049703260696052556
:10197000079503A9074800F0DFFD80230393049730
:1019800005940696079503A9034800F0D5FDC5E721
:1019900000300140000402400000024000B583B066
:1019A000002200920D4B596C41F480415964596CEE
:1019B00001F48041009100990192196C41F080512D
:1019C00019641B6C03F080530193019B0F216FF08E
:1019D000010000F057FD03B05DF804FB0038024041
:1019E000FEE7FEE7FEE7FEE7FEE7704708B500F01A
:1019F00041F902F0C1FE012800D108BD02F02AF829
:101A0000FBE708B5082000F095FE08BD08B51020DA
:101A100000F090FE08BD000008B5024800F0EBFBA6
:101A200008BD00BF300A002008B5202000F082FE6B
:101A300008BD0120704708B50CF064FF1623036051
:101A40004FF0FF3008BD08B54FF0FF31FFF7F3FF4F
:101A5000FEE770B50C461646002506E0AFF30080A1
:101A6000214601F8010B01350C46B542F6DB304644
:101A700070BD70B50C461646002504E014F8010B45
:101A8000AFF300800135B542F8DB304670BD000091
:101A900008B503460B4A126842B10A4A106803446B
:101AA0006A46934206D8074A136008BD054A0649AC
:101AB0001160F2E70CF026FF0C2303604FF0FF30BB
:101AC000F3E700BF600D0020504C00204FF0FF30C6
:101AD00070474FF400534B6000207047012070475F
:101AE00000207047034AD2F8883043F47003C2F8EC
:101AF0008830704700ED00E00268094B9A4200D040
:101B0000704782B000230193064B5A6C42F40032B6
:101B10005A645B6C03F400330193019B02B070477D
:101B2000004401400038024000B587B00023019313
:101B3000029303930493059302680E4B9A4202D0DA
:101B400007B05DF804FB002300930B4B1A6B42F0C7
:101B500020021A631B6B03F020030093009B4023B9
:101B60000193022302930323059301A9034800F084
:101B7000E3FCE5E700440140003802400014024065
:101B800000B589B000230193029303930493059356
:101B9000069307931548164A02604360836041F23A
:101BA0008732C2600361836101F0DCFCA0B90F4899
:101BB00001F004FD98B96023019300220292039280
:101BC000059201A9094801F05DFD58B90748FFF7E2
:101BD000ABFF09B05DF804FBFFF704FEE7E7FFF792
:101BE00001FEE8E7FFF7FEFDF0E700BF640D00200F
:101BF0000044014010B504460E4B1A784FF47A7336
:101C0000B3FBF2F30C4A1068B0FBF3F000F080FC79
:101C100068B90F2C01D901200AE0002221464FF0BB
:101C2000FF3000F02FFC054B1C60002000E001207D
:101C300010BD00BF040000200000002008000020AC
:101C400008B50B4B1A6842F400721A601A6842F425
:101C500080621A601A6842F480721A60032000F0F1
:101C6000FFFB0F20FFF7C6FFFFF798FE002008BD1F
:101C7000003C0240034A1168034B1B780B4413607D
:101C8000704700BFAC0D002004000020014B186815
:101C9000704700BFAC0D0020002800F0A18038B5CF
:101CA000044690F82030D3B12268136843F0010352
:101CB0001360FFF7EBFF054623685A6812F0010F27
:101CC00010D1FFF7E3FF401B0A28F5D9636A43F4FC
:101CD00000336362052384F82030012038BDFFF70C
:101CE0008BFBE1E71A6822F002021A60FFF7CEFFD1
:101CF000054623685A6812F0020F0DD0FFF7C6FFA1
:101D0000401B0A28F5D9636A43F400336362052354
:101D100084F820300120E1E7227E012A3DD01A68B4
:101D200022F080021A60637E012B3BD02268136888
:101D300023F040031360A37E012B39D0226813687F
:101D400023F020031360E37E012B37D02268136851
:101D500043F010031360237F012B35D022681368F2
:101D600023F008031360637F012B33D022681368CC
:101D700023F004031360A368E2681343226913434A
:101D8000626913436268013A21681343CB61002002
:101D90006062012384F82030A0E71A6842F08002D4
:101DA0001A60C0E72268136843F040031360C2E77B
:101DB0002268136843F020031360C4E722681368A5
:101DC00023F010031360C6E72268136843F008038A
:101DD0001360C8E72268136843F004031360CAE77E
:101DE0000120704790F82030013BDBB2012B05D970
:101DF000436A43F4802343620120704730B5464B69
:101E0000D3F8002242F00102C3F80022D3F80022E6
:101E100022F47C52C3F80022D3F80022486A42EA36
:101E20000022C3F800224A6902F01F02012000FAD2
:101E300002F2D3F81C026FEA020C20EA0200C3F897
:101E40001C02CB69C3B9344BD3F80C020CEA000076
:101E5000C3F80C028C884869CD6844EA05444830D0
:101E600043F830408C68088840EA04404C6904F12B
:101E7000480E03EBCE035860CB69012B1ED08B6953
:101E8000002B33D12448D0F804320CEA0303C0F805
:101E900004320B698BBB2048D0F814320CEA0303E0
:101EA000C0F814320B6A012B2ED01B4AD2F8003234
:101EB00023F00103C2F80032002030BD164BD3F8E6
:101EC0000C021043C3F80C028C8848690D6844EA80
:101ED0000544483043F8304088894C698D6840EAB1
:101EE0000540483403EBC4035860C8E70A48D0F8FB
:101EF00004321343C0F80432CBE70748D0F8143259
:101F00001343C0F81432CDE70349D1F81C32134310
:101F1000C1F81C32C9E700BF0064004070B5044638
:101F200090F82050EDB2012D06D0436A43F400230F
:101F300043620125284670BD022380F820300268E4
:101F4000136823F001031360FFF7A0FE0646236821
:101F50005B6813F0010F0CD0FFF798FE831B0A2B70
:101F6000F5D9636A43F400336362052384F82030B3
:101F7000E0E700256562DDE730B590F820C0046831
:101F8000A4680CF1FF3C5FFA8CFCBCF1010F6BD82C
:101F900014F0E05F62D0C4F3016CBCF1020F05D90C
:101FA000436A43F400034362012062E0012404FA1F
:101FB0000CF41C608B68002B3DD10D68CB68046865
:101FC00043EA45550CF118031B01E55003680C6901
:101FD0000CF1180E03EB0E135C600B7D012B35D05A
:101FE000D17993791B0443EA0163517943EA0123D0
:101FF00014790168234301EB0C11C1F88C31D178BD
:1020000093781B0443EA0163517843EA0123117872
:1020100002680B4302EB0C12C2F8883102680CF123
:10202000180C4FEA0C1C52F80C3043F0010342F834
:102030000C3000201DE04C6843EAC403CC68234305
:102040000CF11804240105682B51BFE7036803EB6A
:102050000E13596841F480715960C1E7436A43F433
:1020600000134362012004E0436A43F48023436287
:10207000012030BD90F820C00CF1FF3C5FFA8CFCD1
:10208000BCF1010F00F2958030B451B90468E468E6
:1020900014F0030F10D1436A43F40013436201208C
:1020A00077E00468246914F0030F05D1436A43F410
:1020B0000013436201206CE001F11B042401056858
:1020C0002C5904F004049460002C64D101F11B0429
:1020D000240105682C59640D1460046801F11B0C7F
:1020E0004FEA0C1C54F80C4004F00204D46004685D
:1020F0006444646804F00F04146104686444646810
:10210000C4F307249461046864446468240C546133
:10211000026802EB0112D2F8B8211A70026802EBD1
:102120000112D2F8B821C2F307225A70026802EBFA
:102130000112D2F8B821C2F307429A70026802EB8A
:102140000112D2F8B821120EDA70026802EB011205
:10215000D2F8BC211A71026802EB0112D2F8BC213C
:10216000C2F307225A71026802EB0112D2F8BC21B5
:10217000C2F307429A71026802EB0112D2F8BC2145
:10218000120EDA7179B90268D36843F02003D36084
:10219000002030BC704701F11B04240105682C5954
:1021A000E408546099E70268136943F0200313615F
:1021B000EEE7436A43F4802343620120704790F8BE
:1021C0002030013BDBB2012B05D9436A43F4802365
:1021D000436201207047026853690B43536100203A
:1021E0007047704770477047704770477047704737
:1021F0007047704770472DE9F84F054603685C69E2
:10220000D3F804809F68D3F80CB0D3F810A0D3F8AB
:10221000189014F001063BD017F0010616D00122E9
:102220009A6017F0020F08D117F0040F0CD117F0C5
:10223000080606D04FF4805608E0FFF7D2FF0026CC
:1022400004E0FFF7D1FF01E04FF4006617F4807F50
:102250000DD02B684FF480729A6017F4007F40F025
:10226000868017F4806F00F0868046F4005617F4DD
:10227000803F0DD02B684FF480329A6017F4003FF6
:1022800040F0838017F4802F00F0838046F40046EE
:1022900014F0080F07D01BF0100F04D046F400769E
:1022A0002B681022DA6014F0040F02D01BF0080F24
:1022B00079D114F0020F04D02B68DB6813F0030F00
:1022C00078D114F0400F07D01AF0100F04D046F464
:1022D00080662B6810221A6114F0200F02D01AF0C9
:1022E000080F6BD114F0100F04D02B681B6913F08A
:1022F000030F6AD114F4003F02D018F0100F68D118
:1023000014F4803F02D018F0080F69D114F4004F84
:102310007AD018F0040F74D014F4807F04D019F030
:10232000010F01D046F0010614F4007F04D019F02B
:10233000020F01D046F0020614F4806F04D019F0A9
:10234000040F01D046F0040614F4006F59D019F0C0
:10235000700956D0B9F1400F65D058D8B9F1200FA7
:102360005ED0B9F1300F42D146F0200644E0284655
:10237000FFF738FF7BE717F4006F02D046F4804682
:1023800075E72846FFF731FF71E72846FFF72BFF77
:102390007EE717F4002F02D046F4803678E728460F
:1023A000FFF724FF74E72B680822DA60284603F061
:1023B000CDF97EE7284603F0A3F982E72B680822CF
:1023C0001A612846FFF714FF8CE72846FFF70FFF36
:1023D00090E72B6810225A602846FFF70AFF8FE724
:1023E0002B6808225A602846FFF704FF8EE7B9F1F0
:1023F000100F01D146F008062A68936923F0700394
:1024000093612B6804225A609EB9BDE8F88FB9F138
:10241000500F0BD0B9F1600FEED146F48076EBE7A8
:1024200046F01006E8E746F04006E5E746F080068D
:10243000E2E76B6A33436B62284603F099F9E4E7FD
:1024400090F82030013BDBB2012B05D9436A43F4FD
:10245000802343620120704700234362184670477F
:10246000074AD36823F4E0631B041B0C000200F44A
:10247000E060034343F0BF6343F40033D36070472D
:1024800000ED00E000B5194BDB68C3F30223C3F194
:10249000070CBCF1040F28BF4FF0040C03F1040E2D
:1024A000BEF1060F18D9033B4FF0FF3E0EFA0CFCAD
:1024B00021EA0C0199400EFA03FE22EA0E020A43B9
:1024C00000280BDB1201D2B200F1604000F5614040
:1024D00080F800235DF804FB0023E5E700F00F001F
:1024E0001201D2B2024B1A54F4E700BF00ED00E033
:1024F00014ED00E0002807DB00F01F024009012373
:102500009340024A42F82030704700BF00E100E0EB
:102510000138B0F1807F0BD24FF0E0235861054ABB
:10252000F02182F823100020986107221A61704779
:102530000120704700ED00E000230F2B00F2E9803E
:1025400070B582B065E085684FEA430E032404FA53
:102550000EF425EA0405CC6804FA0EF42C438460DA
:10256000446824EA02044A68C2F300129A402243F3
:1025700042605CE0DC08083450F8242003F00705D2
:10258000AD004FF00F0E0EFA05FE22EA0E0E0A699C
:10259000AA4042EA0E0240F824205CE0072200E054
:1025A000002202FA0EF22A4302345A4D45F8242042
:1025B000594A14686FEA0C0224EA0C054E6816F4B6
:1025C000803F01D04CEA0405534C2560646802EA60
:1025D00004054E6816F4003F01D04CEA04054E4C49
:1025E0006560A46802EA04054E6816F4801F01D0F5
:1025F0004CEA0405484CA560E46822404D6815F497
:10260000001F01D04CEA0402434CE26001330F2B5F
:102610007DD801229A400C6804EA020C32EA0404D4
:10262000F4D14C6804F00304013C012C8BD94A68B6
:1026300002F00302032A09D0C4685D000322AA4005
:1026400024EA02048A68AA402243C2604A6802F06F
:102650000302022A8ED004684FEA430E032202FAD4
:102660000EF224EA02044A6802F0030202FA0EF2B1
:10267000224302604A6812F4403FC7D00022019210
:10268000264A546C44F480445464526C02F48042F0
:102690000192019A9C08A51C1E4A52F8255003F08D
:1026A000030E4FEA8E0E0F2202FA0EF225EA020501
:1026B0001B4A90423FF474AF02F5806290421AD0F8
:1026C00002F58062904218D002F58062904216D0E6
:1026D00002F58062904214D002F58062904212D0DE
:1026E00002F58062904210D002F5806290423FF481
:1026F00055AF082255E7012253E7022251E7032292
:102700004FE704224DE705224BE7062249E702B0D6
:1027100070BD704700380140003C01400038024065
:10272000000002400AB1816170470904816170476D
:102730007047000008B5054B5B69034200D108BD36
:10274000024B5861FFF7F4FFF9E700BF003C01407E
:10275000002800F0CC8070B5044690F83D30002B86
:1027600077D0242384F83D302268136823F00103D6
:1027700013602268136843F40043136022681368EF
:1027800023F40043136000F0C7FB62685A4B9A427F
:1027900064D85A4B98428CBF00230123002B40F091
:1027A000A8805749A1FB00318B0C25686A6822F08C
:1027B0003F0242EA91426A6021680A6A22F03F02BF
:1027C00066684D4DAE424FD8013313430B6221680A
:1027D000CA6922F44F4222F0FF026568464B9D42CF
:1027E0004CD8431E6D00B3FBF5F3013340F6FC708B
:1027F000034278D0C3F30B031A43CA6121680B6804
:1028000023F0C003E269206A024313430B6021688E
:102810008B6823F4034323F0FF032269E06802433B
:1028200013438B602168CB6823F0FF036269A069C2
:1028300002431343CB602268136843F00103136023
:1028400000202064202384F83D30206384F83E007B
:1028500070BD80F83C30FEF771FF82E7294B98424B
:102860008CBF0023012399E74FF4967505FB03F312
:10287000254DA5FB03539B090133A6E7A668BEB906
:10288000431E05EB450CB3FBFCF30133C3F30B0311
:10289000B3FA83F35B0943BBC6B9431E05EB450599
:1028A000B3FBF5F30133C3F30B0343F40043A3E796
:1028B000431E05EB850C0CEB8C0CB3FBFCF30133D6
:1028C000C3F30B03B3FA83F35B09E4E7431E05EBA1
:1028D000850505EB8505B3FBF5F30133C3F30B0366
:1028E00043F4404388E7042386E7012384E701207B
:1028F00070470120ACE700BFA08601007F841E0066
:1029000083DE1B43FF083D00D34D6210002800F01A
:10291000E08170B582B00446036813F0010F3BD02C
:102920009F4B9B6803F00C03042B2CD09C4B9B68A3
:1029300003F00C03082B21D06368B3F5803F4FD020
:10294000B3F5A02F52D0964B1A6822F480321A6049
:102950001A6822F480221A606368002B50D0FFF7B7
:1029600095F905468E4B1B6813F4003F14D1FFF711
:102970008DF9401B6428F5D90320B1E1884B5B68D1
:1029800013F4800FD8D0864B1B6813F4003F03D09C
:102990006368002B00F09F81236813F0020F54D06E
:1029A0007F4B9B6813F00C0F3ED07D4B9B6803F070
:1029B0000C03082B33D0E368002B68D0794B01223D
:1029C0001A60FFF763F90546754B1B6813F0020F99
:1029D00054D1FFF75BF9401B0228F5D903207FE1B2
:1029E0006F4A136843F480331360B5E76C4B1A6881
:1029F00042F480221A601A6842F480321A60ABE70F
:102A0000FFF744F90546664B1B6813F4003FC3D03B
:102A1000FFF73CF9401B6428F5D9032060E1604BC7
:102A20005B6813F4800FC6D15D4B1B6813F0020F77
:102A300003D0E368012B40F05081594A136823F01A
:102A4000F803216943EAC1031360236813F0080FF8
:102A500042D063696BB3534B0122C3F8802EFFF75A
:102A600015F905464E4B5B6F13F0020F34D1FFF79B
:102A70000DF9401B0228F5D9032031E1484A1368BB
:102A800023F0F803216943EAC1031360DDE7454BF6
:102A900000221A60FFF7FAF80546414B1B6813F055
:102AA000020FD2D0FFF7F2F8401B0228F5D903201D
:102AB00016E13C4B0022C3F8802EFFF7E7F80546ED
:102AC000374B5B6F13F0020F06D0FFF7DFF8401BA8
:102AD0000228F5D9032003E1236813F0040F77D00F
:102AE0002F4B1B6C13F0805F33D1002301932C4BD1
:102AF0001A6C42F080521A641B6C03F080530193ED
:102B0000019B0125284B1B6813F4807F23D0A36809
:102B1000012B34D0052B38D0214B1A6F22F0010243
:102B20001A671A6F22F004021A67A368002B3DD0BF
:102B3000FFF7ACF806461A4B1B6F13F0020F46D195
:102B4000FFF7A4F8801B41F288339842F3D90320A1
:102B5000C6E00025D6E7144A136843F48073136077
:102B6000FFF794F80646104B1B6813F4807FCED114
:102B7000FFF78CF8801B0228F5D90320B0E0084A43
:102B8000136F43F001031367CFE7054B1A6F42F051
:102B900004021A671A6F42F001021A67C5E700BF04
:102BA000003802400000474200700040FFF76EF816
:102BB0000646524B1B6F13F0020F08D0FFF766F862
:102BC000801B41F288339842F3D9032088E0EDB9A5
:102BD000A369002B00F08380484A926802F00C023F
:102BE000082A51D0022B17D0454B00221A66FFF756
:102BF0004DF80446414B1B6813F0007F42D0FFF7AD
:102C000045F8001B0228F5D9032069E03B4A136C04
:102C100023F080531364DBE7394B00221A66FFF779
:102C200035F80546354B1B6813F0007F06D0FFF7DB
:102C30002DF8401B0228F5D9032051E0E369226AF0
:102C40001343626A43EA8213A26A5208013A43EAD2
:102C50000243E26A43EA0263284A5360284B012296
:102C60001A66FFF713F80446244B1B6813F0007F25
:102C700006D1FFF70BF8001B0228F5D903202FE03F
:102C800000202DE000202BE0012B2BD01B4B5B689C
:102C900003F48001E269914226D103F03F02216AE8
:102CA0008A4223D1616A47F6C0721A40B2EB811F93
:102CB0001ED103F44031A26A5208013AB1EB024F2F
:102CC00018D103F07063E26AB3EB026F14D10020F5
:102CD00006E001207047012002E0012000E0002012
:102CE00002B070BD0120FBE70120F9E70120F7E702
:102CF0000120F5E70120F3E70120F1E70038024069
:102D00000000474208B5264B9B6803F00C03042BD8
:102D100041D0082B41D1224B5A6802F03F025B6838
:102D200013F4800F12D01E4B5968C1F388111D484F
:102D30000023A1FB0001FDF7FFFE194B5B68C3F305
:102D4000014301335B00B0FBF3F027E0144B5868FC
:102D5000C0F388104FEA401CBCEB000C6EEB0E0E6B
:102D60004FEA8E1343EA9C634FEA8C11B1EB0C01DE
:102D700063EB0E03DB0043EA5173C90011EB000C57
:102D800043F10003990200234FEA8C2041EA9C5151
:102D9000FDF7D2FED1E7034800E0034808BD00BFBD
:102DA00000380240001BB7000024F400002800F0A7
:102DB0009B8070B50D4604464F4B1B6803F007031C
:102DC0008B4208D2CBB24C4A1370136803F007034E
:102DD0008B4240F08B80236813F0020F17D013F062
:102DE000040F04D0454A936843F4E053936023688A
:102DF00013F0080F04D0414A936843F46043936092
:102E00003E4A936823F0F003A1680B439360236864
:102E100013F0010F32D06368012B21D09A1E012AD2
:102E200025D9364A126812F0020F61D033498A68F8
:102E300022F0030213438B60FEF728FF06462F4B58
:102E40009B6803F00C036268B3EB820F16D0FEF7A9
:102E50001DFF801B41F288339842F0D9032042E0E5
:102E6000264A126812F4003FE0D101203BE0234AD9
:102E7000126812F0007FD9D1012034E01E4B1B688C
:102E800003F00703AB4207D9EAB21B4B1A701B6869
:102E900003F00703AB422DD1236813F0040F06D0D3
:102EA000164A936823F4E053E1680B439360236868
:102EB00013F0080F07D0114A936823F46043216987
:102EC00043EAC1039360FFF71DFF0C4B9B68C3F3FC
:102ED00003130B4AD35CD8400A4B18600A4B18689E
:102EE000FEF788FE002070BD012070470120FAE740
:102EF0000120F8E70120F6E7003C024000380240DC
:102F0000404E01080000002008000020014B186816
:102F1000704700BF0000002008B5FFF7F7FF044B23
:102F20009B68C3F38223034AD35CD84008BD00BF2B
:102F300000380240504E01082DE9F04782B00546A6
:102F4000884617461E46FEF7A1FE0A9B1B1A03EB96
:102F50000609FEF79BFE82462A4B1B68C3F3CB3360
:102F600009FB03F301932B689C6838EA04040CBF47
:102F700001230023BB4240D0B6F1FF3FF3D0FEF760
:102F800085FEA0EB0A0048450AD2B9F1000F07D030
:102F9000019A02B14A46019B013B01939146E2E747
:102FA0002A68536823F0E00353606B68B3F5827FAF
:102FB0000BD0AB6AB3F5005F14D0012385F8513014
:102FC000002385F85030032018E0AB68B3F5004FBC
:102FD00002D0B3F5806FECD12A68136823F0400368
:102FE0001360E6E72A68136823F4005313602A6825
:102FF000136843F400531360DFE7002002B0BDE81C
:10300000F08700BF0000002010B584B00446164BC6
:103010001868164BA3FB0030400D4FF47A7303FB86
:1030200000F003906368B3F5827F0BD0039BBBB1C4
:10303000039B013B039323689B6813F0800FF5D13A
:1030400000200EE000920B46002280212046FFF770
:1030500073FF30B1636D43F020036365032000E02C
:10306000002004B010BD00BF00000020819F5E164C
:1030700000285AD010B50446436A33B94368B3F503
:10308000827F05D00023C36102E000230361436116
:103090000023A36294F85130002B40D0022384F81F
:1030A00051302268136823F040031360636803F40F
:1030B0008273A26802F404421343E26802F40062DD
:1030C0001343226902F002021343626902F0010213
:1030D0001343A26902F400721343E26902F038025A
:1030E0001343226A02F080021343A26A02F40052E0
:1030F000216813430B60638B03F00403626A02F0E0
:103100001002216813434B602268D36923F40063E3
:10311000D36100206065012384F8513010BD84F82C
:1031200050302046FEF7EEFBB8E7012070472DE94E
:10313000F04383B01F460A9D90F85030012B00F0F9
:103140001081044688469146012380F85030FEF7EE
:103150009DFD064694F85130DBB26268012B0AD01F
:10316000B2F5827F40F0E380A268002A40F0E98057
:10317000042B40F0E880B8F1000F00F0E680B9F1D0
:10318000000F00F0E480002F00F0E38094F851304D
:10319000DBB2042B02D0052384F851300023636591
:1031A000C4F83890E787A787C4F83080E786A786F9
:1031B0002364636423681A6812F0400F03D11A680D
:1031C00042F040021A60E368B3F5006F11D0636803
:1031D0000BB1012F0BD1226B236812781A73236B6A
:1031E00001332363E38E9BB2013B9BB2E38601274D
:1031F0006BE063680BB1012F0BD1226B236812883F
:10320000DA60236B02332363E38E9BB2013B9BB2F4
:10321000E38601271CE023689A6812F0010F0ED0A4
:10322000E28F92B25AB1DA68A36B1A80A36B0233B1
:10323000A363E38F9BB2013B9BB2E3870127FEF7B9
:1032400025FD801BA84203D3B5F1FF3F40F08380EA
:10325000E38E9BB21BB9E38F9BB2002B53D0236844
:103260009A6812F0020FD6D0E28E92B2002AD2D023
:10327000002FD0D0226B1288DA60236B02332363D5
:10328000E38E9BB2013B9BB2E3860027C3E7236832
:103290009A6812F0010F0ED0E28F92B25AB1DA683A
:1032A000A36B1A70A36B0133A363E38F9BB2013B43
:1032B0009BB2E3870127FEF7E9FC831BAB4202D3F5
:1032C000B5F1FF3F49D1002D49D0E38E9BB213B930
:1032D000E38F9BB2BBB123689A6812F0020FD6D07D
:1032E000E28E92B2002AD2D0002FD0D0226B127878
:1032F0001A73236B01332363E38E9BB2013B9BB2B2
:10330000E3860027C3E7324629462046FFF77CFEC6
:1033100048B9A36863B901932368DA6801929B688E
:103320000193019B04E020236365012000E002205B
:10333000012384F85130002384F8503003B0BDE8F5
:10334000F0830220F4E70220F2E70120F0E70120F9
:10335000EEE70120ECE70320EAE70320E8E703209B
:10336000E6E70220EAE7000030B4036A23F0010335
:103370000362036A4268846924F0730C0C6844EAAF
:103380000C0423F0020C8B6843EA0C03114DA84295
:1033900003D005F58065A84205D123F00803CD6868
:1033A0002B4323F004030B4DA84203D005F58065A1
:1033B000A84207D122F440724D6945EA020C8A699D
:1033C00042EA0C02426084614A684263036230BC94
:1033D000704700BF0000014030B4036A23F48073DB
:1033E0000362036A4268C46924F0730C0C6844EAFF
:1033F0000C0523F400738C6843EA0423114CA042AB
:1034000003D004F58064A04206D123F40063CC68A5
:1034100043EA042323F480630A4CA04203D004F55A
:103420008064A04207D122F440524C6942EA04125F
:103430008C6942EA04124260C5614A68C263036251
:1034400030BC70470000014030B4036A23F480535D
:103450000362036A4468C26922F4E6420D6842EAE4
:10346000052223F400538D6843EA0533094DA84231
:1034700003D005F58065A84204D124F480444D6949
:1034800044EA85144460C2614A680264036230BC45
:10349000704700BF00000140704700000368304AD9
:1034A000904212D0B0F1804F0FD0A2F57C429042F2
:1034B0000BD002F58062904207D002F58062904204
:1034C00003D002F57842904203D123F070034A689A
:1034D0001343234A90422AD0B0F1804F27D0A2F55F
:1034E0007C42904223D002F5806290421FD002F5C8
:1034F000806290421BD002F57842904217D002F5CC
:103500007052904213D002F5806290420FD002F5C3
:10351000806290420BD0A2F59832904207D002F51B
:103520008062904203D002F58062904203D123F47E
:103530004073CA68134323F080034A69134303604E
:103540008B68C3620B688362054B984203D003F516
:103550008063984201D10B69036301234361704783
:103560000000014040B310B5044690F83D30F3B17F
:10357000022384F83D30214651F8040BFFF78EFFFB
:10358000012384F8463084F83E3084F83F3084F8D4
:10359000403084F8413084F8423084F8433084F875
:1035A000443084F8453084F83D30002010BD80F868
:1035B0003C30FEF7A1FADBE70120704740B310B5BD
:1035C000044690F83D30F3B1022384F83D302146A3
:1035D00051F8040BFFF762FF012384F8463084F8AA
:1035E0003E3084F83F3084F8403084F8413084F82D
:1035F000423084F8433084F8443084F8453084F80D
:103600003D30002010BD80F83C30FFF745FFDBE780
:103610000120704730B4036A23F010030362036A89
:103620004468826922F4E6420D6842EA052223F0EA
:1036300020038D6843EA0513114DA84203D005F518
:103640008065A84206D123F08003CD6843EA0513C4
:1036500023F040030A4DA84203D005F58065A84237
:1036600007D124F440644D6944EA85048D6944EA35
:103670008504446082614A688263036230BC70479B
:103680000000014038B590F83C30012B66D004466C
:103690000D46012380F83C300C2A5AD8DFE802F0AE
:1036A000075959591B5959593059595944000068FB
:1036B000FFF75AFE2268936943F00803936122687A
:1036C000936923F0040393612268936929690B438A
:1036D000936100203EE00068FFF79CFF2268936939
:1036E00043F4006393612268936923F480639361D8
:1036F00022689369296943EA01239361002029E044
:103700000068FFF769FE2268D36943F00803D361BC
:103710002268D36923F00403D3612268D36929693D
:103720000B43D361002015E00068FFF78DFE22688F
:10373000D36943F40063D3612268D36923F48063BF
:10374000D3612268D369296943EA0123D361002048
:1037500000E00120002384F83C3038BD0220FCE763
:10376000842801D00330704700207047EFF30580B4
:10377000003818BF0120704708B500F0E1FD0020B7
:1037800008BD08B5FFF7F2FF10B100F021FE08BD3B
:1037900000F018FEFBE72DE9F04387B00E464469C0
:1037A000C4B18569B5B14768D0F80080D0F81090F1
:1037B000B0F90800FFF7D4FF02950194009033465A
:1037C0004A464146384600F0DBFC0590059807B0B4
:1037D000BDE8F083446805680769B0F90800FFF7A1
:1037E000BFFF05AB019300903346BAB2294620468D
:1037F00000F001FD0128E9D00020E8E708B500B994
:10380000012000F047FF002008BD08B501B90121E3
:1038100000F0EEFE002008BD00F1080343604FF009
:10382000FF328260C360036100230360704700239E
:103830000361704743684B609A688A605160996081
:103840000861036801330360704730B40D68B5F157
:10385000FF3F11D000F108031C465B681A68AA42BA
:10386000FAD963684B6099608C6061600861036895
:103870000133036030BC70470469F2E703694168B3
:1038800082688A60416851605A68824206D000228C
:1038900002611A68013A1A601868704782685A60B3
:1038A000F5E7000082B0002301930D4B1B68B3F1D4
:1038B000FF3F08D04FF0500383F31188BFF36F8FA1
:1038C000BFF34F8FFEE74FF0500383F31188BFF330
:1038D0006F8FBFF34F8F019B002BFCD002B070475E
:1038E0000C00002008480068006880F308884FF04A
:1038F000000080F3148862B661B6BFF34F8FBFF348
:103900006F8F00DF00BF000008ED00E0DFF80C0063
:10391000016841F4700101607047000088ED00E02B
:103920004FF0807340F8043C21F0010140F8081C7E
:10393000054B40F80C3C40F8202C6FF0020340F897
:10394000243C4438704700BFA53800080000000040
:10395000074B19680868B0E8F04F80F30988BFF397
:103960006F8F4FF0000080F311887047AFF3008035
:10397000D84900204FF0500383F31188BFF36F8FB5
:10398000BFF34F8F0B4A136801331360012B00D034
:1039900070474FF0E023D3F8043D13F0FF0FF7D04A
:1039A0004FF0500383F31188BFF36F8FBFF34F8F36
:1039B000FEE700BF0C000020094B1B6843B94FF025
:1039C000500383F31188BFF36F8FBFF34F8FFEE770
:1039D000013B034A13600BB983F31188704700BFA2
:1039E0000C000020000000000000000000000000AB
:1039F000EFF30980BFF36F8F154B1A681EF0100F9D
:103A000008BF20ED108A20E9F04F10602DE9090071
:103A10004FF0500080F31188BFF34F8FBFF36F8FCB
:103A200000F05EFE4FF0000080F3118809BC1968B9
:103A30000868B0E8F04F1EF0100F08BFB0EC108A15
:103A400080F30988BFF36F8F704700BFAFF300802A
:103A5000D849002008B54FF0500383F31188BFF315
:103A60006F8FBFF34F8F00F0BBFC28B14FF0E02306
:103A70004FF08052C3F8042D002383F3118808BD52
:103A80004FF0E022002313619361054B1B68054949
:103A9000A1FB03139B09013B53610723136170478B
:103AA00000000020D34D62104FF0E023D3F8002D2A
:103AB0003D4B9A421CD04FF0E023D3F8002D3B4BF6
:103AC0009A421ED030B583B0394B1A78D2B20192E7
:103AD000FF221A701B78DBB28DF803309DF803309B
:103AE00003F05003334A1370334B07221A601BE074
:103AF0004FF0500383F31188BFF36F8FBFF34F8FE5
:103B0000FEE74FF0500383F31188BFF36F8FBFF3CD
:103B10004F8FFEE7284A1368013B13609DF803307E
:103B20005B00DBB28DF803309DF8033013F0800F9B
:103B3000F0D1214B1B68032B08D04FF0500383F3C7
:103B40001188BFF36F8FBFF34F8FFEE71B021A4A36
:103B5000136003F4E0631360019BDBB2144A13703B
:103B60004FF0E024D4F8203D43F47003C4F8203D26
:103B7000D4F8203D43F07043C4F8203DFFF780FFA8
:103B800000250E4B1D60FFF7C1FED4F8343F43F013
:103B90004043C4F8343FFFF7A5FE00F0A1FDFFF756
:103BA00081FE284603B030BD71C20F4170C20F4183
:103BB00000E400E0B00D0020B40D00200C00002057
:103BC000EFF305830F2B0FD9114A9B5CDBB2114A2F
:103BD00012789A4208D94FF0500383F31188BFF34B
:103BE0006F8FBFF34F8FFEE74FF0E023D3F80C3D0C
:103BF00003F4E063084A1268934208D94FF0500377
:103C000083F31188BFF36F8FBFF34F8FFEE77047C9
:103C1000F0E300E0B00D0020B40D0020124A12F0D5
:103C2000070F1ED0D11D21F00701C1F570531344B9
:103C30000A460E480260002141601344083B23F00D
:103C400007030B48036059601960991A51601360AB
:103C5000084B1960084B1960084B4FF000421A607E
:103C600070474FF47053E4E7BC0D0020D0490020AA
:103C7000B80D0020C4490020C0490020BC490020E4
:103C8000164B1A461B688342FBD3516802EB010CAA
:103C9000844509D0416800EB010C634509D00360FD
:103CA000904219D01060704740680144516010463E
:103CB000F0E710B40A4C2468A3420BD05B681944A7
:103CC000416013681B680360904200D010605DF88B
:103CD000044B70470460F7E7704700BFD0490020ED
:103CE000B80D002070B5054600F064FB364B1B682C
:103CF000A3B1364B1B681D424ED135B1083515F0C6
:103D0000070F02D025F007050835002D46D0304BAF
:103D10001B68AB4251D32F4A146804E0FFF77EFFC3
:103D2000E7E722461C466368AB4202D22368002BB9
:103D3000F7D1254B1B68A34241D01668083623688B
:103D4000136063685B1B102B10D9601910F0070F0C
:103D500008D04FF0500383F31188BFF36F8FBFF388
:103D60004F8FFEE743606560FFF78AFF626818497E
:103D70000B689B1A0B60184909688B4201D21649DF
:103D80000B60124B1B681343636000232360134ACC
:103D900013680133136002E0002600E0002600F003
:103DA000ABFB16F0070F0CD04FF0500383F31188D4
:103DB000BFF36F8FBFF34F8FFEE70026EFE70026BC
:103DC000EDE7304670BD00BFB80D0020BC490020B3
:103DD000C0490020D0490020C4490020C849002023
:103DE000002834D038B50446A0F1080550F8043C4A
:103DF000174A1268134208D14FF0500383F3118819
:103E0000BFF36F8FBFF34F8FFEE750F8081C41B12F
:103E10004FF0500383F31188BFF36F8FBFF34F8FC1
:103E2000FEE723EA020340F8043C00F0C3FA54F82A
:103E3000041C084A13680B4413602846FFF720FF50
:103E4000054A13680133136000F056FB38BD704714
:103E5000BC490020C0490020CC490020084B1B6809
:103E60001B6823B9074B4FF0FF321A607047044BB1
:103E70001B68DB68DB685A68024B1A60704700BF3A
:103E8000DC490020B04A00202DE9F04780460D466D
:103E900017469946089EDDF824A00A9C9200A521A9
:103EA000206B0BF0C7FA236B07F18042013A03EB5A
:103EB000820727F00707A5B34FF0000CBCF10F0FE6
:103EC00009D815F80C3004EB0C0282F8343013B129
:103ED0000CF1010CF2E7002384F84330062E00D9E0
:103EE0000626E66266640025A564201DFFF79FFC98
:103EF00004F11800FFF79BFC2461C6F10706A661D8
:103F00006462E56484F850504A4641463846FFF7FB
:103F100007FD2060BAF1000F01D0CAF80040BDE8EB
:103F2000F087002384F83430D8E7000038B5002447
:103F300007E004EB840293000E481844FFF76CFC82
:103F40000134062CF5D90C4D2846FFF765FC0B4CC7
:103F50002046FFF761FC0A48FFF75EFC0948FFF7BF
:103F60005BFC0948FFF758FC084B1D60084B1C60C0
:103F700038BD00BFE4490020844A0020984A002050
:103F8000BC4A0020E84A0020D44A0020DC49002036
:103F9000E049002010B50446FFF7ECFC214A136805
:103FA00001331360204B1B685BB1204B1B686BB95E
:103FB0001D4B1B68DA6AE36A9A4207D81A4B1C60E9
:103FC00004E0194B1C601368012B28D0184A1368B1
:103FD00001331360E06A01238340164A11680B43E2
:103FE000136000EB8000211D134B03EB8000FFF7F3
:103FF00021FCFFF7E1FC0D4B1B687BB10A4B1B68F2
:10400000DA6AE36A9A4209D24FF0E0234FF0805215
:10401000C3F8042DBFF34F8FBFF36F8F10BDFFF7B1
:1040200085FFD3E7704A0020D8490020D04A0020FD
:104030007C4A0020804A0020E449002010B5044654
:1040400090F8513063B1012B11D0022B0ED04FF0FC
:10405000500383F31188BFF36F8FBFF34F8FFEE7D9
:10406000006BFFF7BDFE2046FFF7BAFE10BDFFF75D
:10407000B7FEFBE70F4B1B68D3B110B5FFF77AFC17
:104080000D4BDB68DC68201DFFF7F8FB0B4A13685B
:10409000013B1360074A1368013B1360FFF78CFC78
:1040A0002046FFF7CBFF034B1B68002BE6D110BD6A
:1040B000704700BF744A0020E84A0020704A002080
:1040C00008B5FFF7D7FF074B1B68012BF9D94FF055
:1040D000E0234FF08052C3F8042DBFF34F8FBFF39E
:1040E0006F8FEEE7E449002070B504460D461D4B86
:1040F0001E681D4B18680430FFF7C0FB48B91A4B07
:104100001B68DB6A01229A4018490B6823EA020304
:104110000B60B4F1FF3F0DD03444134B1B685C605F
:10412000A64210D9124B18680F4B19680431FFF7DB
:104130008CFB70BD002DEFD00B4B196804310D487E
:10414000FFF778FBF5E70C4B1868074B196804314B
:10415000FFF77BFB094B1B68A342EAD9074B1C60A6
:10416000E7E700BFFC4A0020D8490020804A002031
:10417000E0490020D44A0020DC490020B04A002059
:1041800030B587B00B9C7CB10C9DB5B1542504951E
:10419000049D542D1AD04FF0500383F31188BFF3C0
:1041A0006F8FBFF34F8FFEE74FF0500383F31188FB
:1041B000BFF36F8FBFF34F8FFEE74FF0500383F3D2
:1041C0001188BFF36F8FBFF34F8FFEE7049D0C9DE7
:1041D0002C63022485F8514000240394029505AC19
:1041E00001940A9C0094FFF74FFE0C98FFF7D2FE53
:1041F000059807B030BD2DE9F04385B007468846E5
:1042000014461E469000FFF76DFD00B38146542012
:10421000FFF768FD0546B0B1C0F83090E5B1002366
:1042200085F85130039302950D9B01930C9B0093ED
:104230003346224641463846FFF726FE2846FFF71A
:10424000A9FE012005E04846FFF7CAFDE6E74FF06A
:10425000FF3005B0BDE8F0834FF0FF30F9E7000014
:1042600038B50446FFF786FB002C34D0251D2846C0
:10427000FFF704FB70B9E26A02EB82039B00274957
:10428000CB583BB9012303FA02F225490B6823EA14
:1042900002030B60A36A1BB104F11800FFF7EEFAEA
:1042A000204A1368013313601F4B1B68A34215D0CB
:1042B0001E4A1368013B13602046FFF7BFFEFFF75D
:1042C000CDFDFFF779FB1A4B1B681BB1164B1B6822
:1042D000A3420CD038BD144B1C68C7E729461548CB
:1042E000FFF7A8FA144A136801331360E9E7134B88
:1042F0001B6843B14FF0500383F31188BFF36F8FF6
:10430000BFF34F8FFEE74FF0E0234FF08052C3F82A
:10431000042DBFF34F8FBFF36F8FDBE7E44900201D
:10432000804A00207C4A0020D8490020704A0020A2
:10433000D04A0020E84A0020744A0020784A002031
:1043400010B588B000240594069407AA06A905A80C
:10435000FDF7D0F8059B0293069B0193009423463A
:10436000079A0E490E48FFF70BFF0E4B186090B1ED
:104370004FF0500383F31188BFF36F8FBFF34F8F5C
:10438000094B4FF0FF321A60084B01221A60084BAC
:104390001C60FFF789FB08B010BD00BF584E010834
:1043A000C1400008AC4A0020B04A0020D04A00209A
:1043B000FC4A0020024A136801331360704700BFB3
:1043C000784A0020014B1868704700BFFC4A002063
:1043D00008B5FFF7F5FB014B186808BDFC4A002043
:1043E000F8B53A4B1B68002B69D1394B1D68013574
:1043F0001D60C5B9374B1B681B6843B14FF05003B4
:1044000083F31188BFF36F8FBFF34F8FFEE7314AFD
:104410001168314B186810601960304A1368013315
:104420001360FFF71BFD2E4B1B68AB423DD90027E5
:104430002C4B1B68DB6A03EB83039A002A4B9B58C7
:10444000012B00D90127294B1B68002B3CD00127E9
:104450003AE001271F4B1B681B6843B31D4B1B68C9
:10446000DB68DC6863689D4226D3261D3046FFF773
:1044700005FAA36A1BB104F11800FFF7FFF9E36A1C
:1044800001229A401A49086802430A6003EB830339
:104490009A00314614481044FFF7CCF9E26A114BF8
:1044A0001B68DB6A9A42D4D2D4E70027D2E70C4BD0
:1044B0004FF0FF321A60BBE7094A1360B8E70D4AB4
:1044C00013680133136000273846F8BD784A00208E
:1044D000FC4A0020DC490020E0490020B44A0020CA
:1044E000B04A0020D8490020E4490020004B0020B9
:1044F000804A0020B84A002038B5354B1B6843B9C4
:104500004FF0500383F31188BFF36F8FBFF34F8FCA
:10451000FEE7FFF72FFA2E4B1A68013A1A601B6864
:10452000002B4FD12B4B1B680BB900244BE0002410
:10453000294B1B681BB3284BDB68DC6804F11800AF
:10454000FFF79CF9251D2846FFF798F9E06A01233B
:104550008340224A11680B43136000EB8000294618
:104560001F4B03EB8000FFF765F9E26A1D4B1B68E8
:10457000DB6A9A42DCD31C4B01221A60D8E70CB1EB
:10458000FFF76CFC194B1C6884B9174B1C68D4B13D
:104590004FF0E0234FF08052C3F8042DBFF34F8F4C
:1045A000BFF36F8F01240EE0013C07D0FFF718FF27
:1045B0000028F9D00C4B01221A60F5E70B4B0022C2
:1045C0001A60E2E70024FFF7F7F9204638BD00BF84
:1045D000784A0020704A0020BC4A0020804A00200F
:1045E000E4490020D8490020004B0020B84A0020B0
:1045F00038B558B10C46054689B94FF0500383F3DE
:104600001188BFF36F8FBFF34F8FFEE74FF050035A
:1046100083F31188BFF36F8FBFF34F8FFEE71B4B00
:104620001B6843B14FF0500383F31188BFF36F8FC2
:10463000BFF34F8FFEE7FFF7BDFE154B18682B68E1
:104640001C44834209D9A34201D82C600EE0A04249
:1046500001D32C600AE02C6004E0A34201D8A04200
:1046600012D22C600021201AFFF73EFDFFF744FF15
:1046700048B94FF0E0234FF08052C3F8042DBFF348
:104680004F8FBFF36F8F38BD2C60EFE7784A002063
:10469000FC4A002010B5A8B10446104B1B6843B17A
:1046A0004FF0500383F31188BFF36F8FBFF34F8F29
:1046B000FEE7FFF77FFE00212046FFF715FDFFF71D
:1046C0001BFF48B94FF0E0234FF08052C3F8042D90
:1046D000BFF34F8FBFF36F8F10BD00BF784A00202C
:1046E000204B1B681BB1204B01221A6070471E4BE8
:1046F00000221A601D4B1B68B3FA83F3DBB2C3F1CF
:104700001F0303EB83018A0019498A5842B94FF00D
:10471000500383F31188BFF36F8FBFF34F8FFEE712
:10472000134903EB830082000A44506840685060DC
:1047300003EB830C4FEA8C0208321144884209D003
:1047400003EB83039A000A4B13445B68DA68094B56
:104750001A607047406862469100054A0A445060FA
:10476000EEE700BF784A0020004B0020804A00207E
:10477000E4490020D8490020054B1B6833B1054BA4
:104780001B680BB100207047022070470120704762
:10479000D04A0020784A0020DFF834D00D480E4976
:1047A0000E4A002302E0D458C4500433C4188C428B
:1047B000F9D30B4A0B4C002301E013600432A242F0
:1047C000FBD3FDF78FF90AF0A5FAFDF761F8704702
:1047D0000000022000000020EC090020D069010840
:1047E000EC0900204C4C0020FEE70000012800D01E
:1047F00070474FF6FF739942FAD1054B1B68B3F926
:104800001E10044A1180B3F91A20034B1A80EFE7F7
:104810001C4B00201A4B0020184B002038B5E0201C
:1048200002F0E0F804462D4A012100F0A1FA2C4BD9
:104830001C60E02002F0D6F80446284A022100F06D
:1048400097FA274B5C601A680123C2F8A030C4F8BD
:10485000A030234C2068B0F91030224A13804169FF
:10486000214B19606368B3F910105180B3F90E2021
:104870001E4B5A80B0F90C101D4A1180B0F90E2061
:104880001A80B0F91C201B4B1A80B0F91A201A4B61
:104890001A801A4D95ED020A00F006FB95ED020A0A
:1048A000606800F001FB164DB5F90010206800F0BB
:1048B000D7FAB5F90010606800F0D2FA0120FFF7CE
:1048C000E9FEC6E7E021204601F05EFC01F05EFC57
:1048D000E021204601F058FC01F058FC300A00208D
:1048E0001C4B00200C4B0020084B0020144B0020D8
:1048F000104B0020044B0020184B0020A84B002038
:104900001000002008B54FF6FF710120FFF76EFF81
:1049100008BD0000012800D0704708B54FF6FF73AE
:10492000994200D008BD0249024800F091FBF9E726
:1049300014000020684B002000230AE0244A191DBF
:1049400002EB8101496803F10A0002EB8002516029
:104950000133022B3BDC03F10A011D4A02EB810209
:10496000D2ED017A9FED1B7AF4EEC77AF1EE10FAE0
:104970000CD5191D164A02EB8102D2ED016AB6EE82
:10498000007AF4EEC76AF1EE10FA13DC9FED127AAA
:10499000F4EEC77AF1EE10FAD0DD191D0C4A02EBE5
:1049A0008102D2ED016ABEEE007AF4EEC76AF1EE42
:1049B00010FAC3D5064A191D02EB81014868C1ED02
:1049C000017A03F10A0102EB81025060C0E77047EF
:1049D0002C4B0020CDCC4C3ECDCC4CBE08B593ED3D
:1049E000024AD3ED013A93ED003AD2ED022A92ED5C
:1049F000012AD2ED001A91ED021AD1ED010A91EDD2
:104A0000000A00F08BFC08BDF8B52DED028B0446C2
:104A10000F4616461D46D0ED000A90ED030A20EE23
:104A2000800AD0ED017A90ED027A27EE877A30EE97
:104A3000070A60EEA00A67EEA77A70EEA70A70EE8A
:104A4000A00AB7EE008A70EEC80A30EE000A08F03D
:104A5000B1FB10EE100A87ED000AFBF715FD2CA341
:104A6000D3E90023FBF768FDFCF716F83860D4EDB6
:104A7000017A94ED037A67EE877A94ED007AD4EDAB
:104A8000026A27EE267A77EEC77AB8EE000A27EE9A
:104A9000800A08F063FB10EE100A86ED000AFBF7AF
:104AA000F3FC1BA3D3E90023FBF746FDFBF7F4FF60
:104AB0003060D4ED000A94ED010A20EE800A94EDF6
:104AC000027AD4ED037A27EE277A30EE070A60EEF9
:104AD000A00A67EEA77A70EEA70A70EEA00A70EE41
:104AE000C80A30EE000A08F065FB10EE100A85EDEA
:104AF000000AFBF7C9FC06A3D3E90023FBF71CFD62
:104B0000FBF7CAFF2860BDEC028BF8BDAFF3008055
:104B1000CB67791EDCA54C4008B54FF6FF7101202C
:104B2000FFF7F8FE08BD000008B5194B1B7893B9D4
:104B3000DFED187AB4EEE70AF1EE10FA06D5164A60
:104B400013780133DBB21370C82B19D841F28730C8
:104B500001F02EFA08BDDFED0F0A104800F0B4F99D
:104B6000B5EEC00AF1EE10FA07D4BCEEC00A10EEA2
:104B7000103A98B201F01CFAECE79FED090AF4E74D
:104B8000034B01221A7041F2873001F011FADDE780
:104B9000284B002000000842294B0020684B0020D1
:104BA00000000000F0B585B0FFF70CFC0390FEF7A5
:104BB000E8FD0546224B4FF07E521A600FE0214B74
:104BC000D3ED007A9FED207A77EEC77AC3ED007AB5
:104BD000FEF7D7FD0546022103A8FEF716FE0023C7
:104BE000009301930293194C271D04F1140604F15C
:104BF000200304F110023946304601F009F9FEF7AE
:104C0000B9FEFFF799FEFEF7D7FE94ED040AFFF711
:104C10008BFF0B4C6B463A4631469FED0D0A204602
:104C2000FFF7DCFE074901F108030A1D2046FFF7E4
:104C3000EBFEFEF7A6FD2B1AB3F57A7FBFD8CAE7C5
:104C4000B44B0020A84B0020B986EE3D2C4B002031
:104C50006F12833A10B58EB0124C0DF11C0CA646A3
:104C6000BEE80F00ACE80F009EE807008CE80700E4
:104C7000002107A8FEF78FFDEE4604F11C0CBCE8EE
:104C80000F00AEE80F009CE807008EE80700002147
:104C90006846FEF780FD044B1868FFF7E1FA0EB096
:104CA00010BD00BFB04D01085C0A00200346084655
:104CB00093F91B101A7A5200023A8154B3F91A2060
:104CC0001B7A5B00013BC25470470A784B7843EA79
:104CD000022383818A78CB7843EA0223C3810A794D
:104CE0004B7943EA022303828B7983747047000077
:104CF0000A784B7843EA0223838191F802C0CA788C
:104D000042EA0C22C28191F804C04A7942EA0C229C
:104D1000028207EE903AF8EEE77ADFED036A87EE5B
:104D2000A67A80ED057A7047610BB64102460846C7
:104D3000137A042B0BD892F91B105B00023BC15471
:104D4000B2F91A10137A5B00013BC1547047082B6B
:104D50000CD892F91B10043B5B00023BC154B2F922
:104D60001A10137A043B5B00013BC15470470000EA
:104D70002DE9F04104460F4616462B4B03600023F5
:104D8000436043818381C381038283740022426133
:104D9000038343838383C383244B03604FF40078EE
:104DA000C0F8208040F2FF134362082380F82830C7
:104DB0001F4D00F12C0CAE46BEE80F00ACE80F0012
:104DC0009EE803008CE8030004F1440E05F1180C82
:104DD000BCE80F00AEE80F009CE803008EE803007B
:104DE00004F12C0104F15C0000F032F904F14401FB
:104DF00004F19C0000F02CF9C4F8DC802772666096
:104E000096F82030DBB2012B02D02046BDE8F081BD
:104E10003046FCF72FFB3046FDF780F80221304684
:104E2000FDF7CDF9F1E700BF8C4E0108B04E010847
:104E3000E84D010808B50A46037A042B02D9082B6D
:104E400007D908BD90F82830016A4068FCF73AFBA2
:104E5000F7E790F82830416A4068FCF733FBF0E749
:104E600010B504468183B0F90E3000EE103A07EE1B
:104E7000901AF8EEE70AB8EEC00A5C3000F024F8A9
:104E8000BDEEC00A10EE103A6383064900230B60A2
:104E90004B6023681B682046984701462046FFF771
:104EA000C9FF10BDC44B002010B50446DFED050A54
:104EB0009C3000F009F8BDEEC00A10EE103AA38352
:104EC00010BD00BF00000000D0B52DED028B0446E0
:104ED00030EEC08A90ED0E7A38EE077A80ED0E7AC9
:104EE000D0ED036A67EE266AD0ED0F7AB4EEE77A6A
:104EF000F1EE10FA01DDC0ED0E7A94ED0E7AF1EECE
:104F0000678AB4EEE87AF1EE10FA01D5C4ED0E8AA4
:104F1000F4EEE67AF1EE10FA01D4F0EE667AF4EEF1
:104F2000E78AF1EE10FA01DCF0EE678A6368012B84
:104F300026D0D4ED027A67EE887A94ED097A38EEBD
:104F4000477AD4ED046A27EE267A77EE877A77EEF1
:104F5000A87A94ED0C7AB4EEE77AF1EE10FA01D467
:104F6000B0EE677A94ED0D0AB4EEC70AF1EE10FACE
:104F700001DCB0EE470A84ED098ABDEC028BD0BD9E
:104F8000DFED317A68EE277A17EE900AFBF77CFAAC
:104F900006460F46D4ED097A78EE677A17EE900A46
:104FA000FBF772FA20A3D3E90023FBF7C5FA024608
:104FB0000B4630463946FBF709F906460F4618EE10
:104FC000900AFBF761FA1AA3D3E90023FBF7B4FABE
:104FD00002460B4630463946FBF7F8F8FBF75CFD16
:104FE00007EE900AF0EEE77A17EE900AFBF74CFA1C
:104FF00006460F4610A3D3E90023FBF79DFA0022D3
:10500000124BFBF7E3F8FBF747FDA0600CA3D3E9D5
:10501000002330463946FBF78FFAFBF73DFD206150
:1050200087E700BFAFF300809A9999999999B93FA2
:105030009A9999999999E93F9A9999999999D93F02
:10504000333333333333EB3F0000704300005440BD
:105050000B4A02600022426282630A6882604A68E8
:10506000C2608A680261CA68C262D1ED047AC0ED8A
:105070000C7AF1EE677AC0ED0D7A4A69C263704727
:10508000D04E0108F6EE007A60EE277A10EE103A64
:10509000074AA2EB630307EE103A67EE277A67EE42
:1050A000277AB7EE080A30EE670A27EE000A704743
:1050B000DF59375F10B52DED068B0446B0EE409AF0
:1050C000F0EE609AB0EE418AF0EE618AB0EE42AA4C
:1050D000F0EE62AAF5EE401AF1EE10FA0AD1B5EE42
:1050E000402AF1EE10FA05D1F5EE402AF1EE10FA61
:1050F00000F0938068EEA87A2AEE0A7A77EE877A33
:105100002AEEAA0A37EE800AFFF7BCFF68EE808A13
:105110002AEE00AA6AEE80AA94ED017AD4ED036A21
:1051200027EE266AD4ED007AD4ED025A27EEA55A6E
:1051300036EE456A27EE277A66EEA55A37EE257ACF
:1051400067EEA77AF6EE005A77EEE57A66EEA66A83
:1051500077EEA67A6AEE275A6AEE876A75EEE65A05
:105160006AEE86AA68EEA77A7AEEE7AA68EE878AE0
:105170002AEE06AA78EECA8A614BD3ED007AF5EEE4
:10518000C07AF1EE10FA40F3B380D3ED007A67EE07
:10519000A57A9FED5C7A67EE877A5B49D1ED006A6C
:1051A00076EEA77AC1ED007AD3ED007A67EEAA7A9F
:1051B00067EE877A554AD2ED006A76EEA77AC2ED9D
:1051C000007AD3ED007A67EEA87A67EE877A504BC3
:1051D00093ED007A77EE277AC3ED007AD1ED007A6D
:1051E00039EE279AD2ED007A79EEA79AD3ED007ABC
:1051F00038EE278A474BD3ED007A67EEA57A39EE71
:10520000279AD3ED007A67EEAAAA79EEAA9AD3ED8F
:10521000007A67EEA87A38EE278ADFED3F7A29EE2A
:10522000270A69EEA70A28EE271AD4ED006A94ED42
:10523000017AD4ED027A27EE409A20EEA76A39EE81
:10524000469AD4ED039A29EE816A39EE469A39EEF0
:10525000269A84ED009A60EE268A21EE276A78EE7F
:10526000868A29EEA06A78EEC68A78EE878AC4ED2F
:10527000018A20EEA68A21EE076A38EE468A29EED8
:10528000806A38EE068A38EE278A84ED028A21EE9B
:10529000261A60EE870A31EE201A20EE270A31EE38
:1052A000401A79EE819AC4ED039A69EE097A28EEE4
:1052B000A87A77EE877A28EE087A77EE877A29EE51
:1052C000A90A37EE800AFFF7DDFE29EE009A84ED89
:1052D000009A68EE808AC4ED018A28EE008A84ED87
:1052E000028A69EE809AC4ED039ABDEC068B10BD6C
:1052F0000023054A1360054A1360054A136079E7E5
:10530000D84B00206F12033BCC4B0020D04B002029
:10531000D44B00202C0000206F12833A10B52DEDE5
:10532000108B86B00446B0EE40AAF0EE60AAB0EE54
:10533000418AF0EE618AB0EE42BAB0EE62CAB0EED7
:10534000439AF0EE63BAF0EE449AB5EE403AF1EECD
:1053500010FA0AD1F5EE403AF1EE10FA05D1B5EEA9
:10536000404AF1EE10FA00F0B181F5EE408AF1EE1C
:1053700010FA0AD1B5EE40BAF1EE10FA05D1B5EE49
:1053800040CAF1EE10FA00F0358168EEA87A2BEEF3
:105390000B7A77EE877A2CEE0C0A37EE800AFFF74D
:1053A00071FE68EE805ACDED025A2BEE005A8DED5B
:1053B000035A6CEE004ACDED044A69EE097A2BEEF1
:1053C000AB7A77EE877A29EEA90A37EE800AFFF7E3
:1053D00059FE29EE009A6BEE80BA69EE809AD4ED00
:1053E000007A27EEA77A8DED057A94ED01BA27EEC3
:1053F0008BFAD4ED028A67EEA8FA94ED03DA67EE31
:105400008D7A6BEE0BCA6BEE286A2BEE0DBA68EE46
:10541000A8EA68EE8D8A2DEE0DDAB6EE00EA3EEED1
:105420006ECA3CEE4DCA2CEE097A76EEE7DA2DEE26
:10543000AB6A37EE067A3FEE8B6A8DED016A26EE97
:10544000296A37EE067A37EE077A77EEA67A67EEA4
:10545000897A7EEE6CCA7CEECD6A66EEAB6A77EE38
:10546000A67A78EECF6A66EEA96A77EEA67A77EE2C
:10547000A77A27EE077A67EEA77A77EE277A17EEF4
:10548000900AFBF701F841EC100B07F095FE51EC88
:10549000100BFBF701FB07EE100A3BEE6FBA6BEE49
:1054A000097A7FEE288A68EEAB6A77EEA67A7CEE00
:1054B000EECA6CEEA96A77EEA67A77EEA77ADDEDF2
:1054C000056A76EECE6A76EE8D6A2CEE07CA2BEE72
:1054D000276A3CEE06CA6DEE87DA28EEA76A7DEEF3
:1054E00086DA9DED016A26EE077A6CEEA7CA77EEA2
:1054F0002C7A9DED035A25EE266ADDED044A28EE4E
:10550000A47A36EE476A2BEEA77A69EEAD5A37EEEB
:10551000657A36EE076A2BEE247ADDED025A65EEE7
:10552000A66A37EE667A69EE8C9A69EE277A79EE8A
:10553000E79A37EE297A68EEA58A2BEE05BA78EE5F
:10554000CB8A29EE2D9A6BEE8CBA39EE6B9A78EEF7
:10555000898A644BD3ED007AF5EEC07AF1EE10FA49
:1055600040F3B780D3ED007A67EE867ADFED5E6AAE
:1055700067EEA67A5D49D1ED005A75EEA77AC1EDC6
:10558000007AD3ED007A67EE877A67EEA67A584AFA
:10559000D2ED005A75EEA77AC2ED007AD3ED007A0B
:1055A00067EEA87A67EEA67A524BD3ED006A76EEE4
:1055B000A77AC3ED007AD1ED007A3AEE27AAD2EDB0
:1055C000007A7AEEA7AAD3ED007A38EE278A4A4B02
:1055D000D3ED007A67EE867A3AEE27AAD3ED007A09
:1055E00027EE877A7AEE87AAD3ED007A67EEA87A5B
:1055F00038EE278ADFED417A2AEE27AA6AEEA7AABB
:1056000028EE278A94ED006AD4ED016A94ED027ABF
:1056100066EECA9A6AEE877A79EEE79AD4ED037A53
:1056200067EE885A79EEE59A79EE869AC4ED009A8B
:105630002AEE069A68EE075A39EE259A67EEAA5ABC
:1056400039EE659A39EE269A84ED019A6AEE868AD9
:1056500068EE265A78EEE58A67EE8A5A78EEA58AD1
:1056600078EE878AC4ED028A28EE068A6AEEA6AA38
:1056700038EE2A8A2AEE07AA38EE4A8A37EE888A56
:1056800084ED038A69EEA97A29EE097A77EE877AA2
:1056900028EEA87A77EE877A28EE080A37EE800A95
:1056A000FFF7F0FC69EE809AC4ED009A29EE009AAB
:1056B00084ED019A68EE808AC4ED028A28EE008AA1
:1056C00084ED038A06B0BDEC108B10BDFFF7F2FC31
:1056D000F8E70023054A1360054A1360054A136082
:1056E00075E700BFD84B00206F12033BCC4B002066
:1056F000D04B0020D44B00202C0000206F12833AA6
:1057000010B588B004460E4B00211960596001AAFB
:10571000FCF7B0FC0B4B9C4201D008B010BD9DF8CB
:105720000430094A116891F8DC105B1ADBB2013BC6
:1057300052F8230003685B6801499847EDE700BF12
:10574000E44B0020300A00201C4B002030B589B00B
:105750000546002406E0054B01AA00212846FCF777
:1057600089FC0134012CF6DD09B030BDDC4B002092
:1057700008B5034B984200D008BDFCF761FEFBE77B
:10578000300A002010B50C4600F06AFC204600F0FC
:1057900067FC10BD10B50C4640F0800000F060FCC6
:1057A000552000F05DFC207010BD38B50D46144644
:1057B00040F0800000F054FC06E0552000F050FC62
:1057C00005F8010B013CE4B2002CF6D138BD000015
:1057D000F0B583B000238DF8073000F019FC80206D
:1057E00000F03EFC552000F03BFC552000F038FC5A
:1057F0008DF8070000F016FC962000F0E1FB00F0A9
:1058000007FC802000F02CFC552000F029FC5520DE
:1058100000F026FC8DF8070000F004FC962000F054
:10582000CFFB00F0F5FBB6217E20FFF7ABFF00F0C9
:10583000F9FB502000F0E0FB00F0EAFB802000F0D4
:105840000FFC552000F00CFC552000F009FC8DF8F1
:10585000070000F0E7FB962000F0B2FB00F0D8FB59
:10586000802000F0FDFB552000F0FAFB552000F0F1
:10587000F7FB8DF8070000F0D5FB962000F0A0FBA9
:105880009DF80730DBB21E2B37D10024052C31D810
:1058900000F0BEFB1A4A04EB4403D1184D78D65CE5
:1058A00029463046FFF76EFF00F0BCFB962000F063
:1058B00087FB00F0ADFB46F0800000F0D1FB5520E7
:1058C00000F0CEFB552000F0CBFB8DF8070000F078
:1058D000A9FB962000F074FB9DF80730DBB29D42D7
:1058E00002D10134E4B2D1E704EB4407044B3B445A
:1058F000987800E0002003B0F0BDFF20FBE700BF78
:10590000E84E0108F0B583B000248DF8074000F0A0
:1059100093FB0DF107012046FFF73CFF00F096FBDB
:10592000962000F04DFB00F087FB0DF107012046AB
:10593000FFF730FF00F08AFB962000F041FB00F0FB
:105940007BFBB6211420FFF71DFF00F07FFB5020EA
:1059500000F052FB00F070FB0DF107012046FFF74D
:1059600019FF00F073FB962000F02AFB00F064FBA7
:105970000DF107012046FFF70DFF00F067FB9620B1
:1059800000F01EFB9DF807300F2B2ED1052C29D8D7
:1059900000F052FB164A04EB4403D1184D78D65C54
:1059A00029463046FFF7EEFE00F050FB962000F04F
:1059B00007FB00F041FB0DF107013046FFF7EAFE5F
:1059C00000F044FB962000F0FBFA9DF807309D4262
:1059D00002D10134E4B2D9E704EB4407044B3B4461
:1059E000987800E0002003B0F0BDFF20FBE700BF87
:1059F000FC4E0108F0B587B0BE4B93E80300019060
:105A0000ADF8081000238DF8033000F001FB802072
:105A100000F026FB552000F023FB552000F020FB72
:105A20008DF8030000F0FEFA962000F0C9FA00F0AD
:105A3000EFFA802000F014FB552000F011FB5520F8
:105A400000F00EFB8DF8030000F0ECFA962000F059
:105A5000B7FA00F0DDFAB6217E20FFF793FE00F0E2
:105A6000E1FA502000F0C8FA00F0D2FA802000F0ED
:105A7000F7FA552000F0F4FA552000F0F1FA8DF80D
:105A8000030000F0CFFA962000F09AFA00F0C0FA76
:105A9000802000F0E5FA552000F0E2FA552000F0F1
:105AA000DFFA8DF8030000F0BDFA962000F088FAC6
:105AB0009DF80330DBB21E2B40F00F810024032C35
:105AC00034D800F0A5FA8C4A04EB4403D118D65C14
:105AD0004D7829463046FFF755FE00F0A3FA962090
:105AE00000F06EFA00F094FA46F0800000F0B8FA88
:105AF000552000F0B5FA552000F0B2FA8DF80300F9
:105B000000F090FA962000F05BFA9DF80330DBB2CB
